:020000040800F2
:10000000680C002069550008B5090008B709000808
:10001000BB090008BF090008C30900080000000070
:10002000000000000000000000000000C7090008F8
:10003000C909000800000000CB090008CD0900082C
:100040008355000883550008835500088355000830
:100050008355000883550008835500088355000820
:100060008355000883550008835500088355000810
:100070008355000883550008835500088355000800
:1000800083550008835500088355000883550008F0
:1000900083550008835500088355000883550008E0
:1000A00083550008835500088355000883550008D0
:1000B000835500088D4F0008315000088355000813
:1000C00083550008835500088355000883550008B0
:1000D00083550008DD540008835500088355000847
:1000E0008355000883550008835500088355000890
:1000F0008355000883550008835500088355000880
:10010000835500088355000883550008835500086F
:10011000835500088355000883550008835500085F
:10012000835500088355000883550008835500084F
:1001300000F002F800F04DF80AA090E8000C8244AC
:100140008344AAF10107DA4501D100F042F8AFF289
:10015000090EBAE80F0013F0010F18BFFB1A43F0A5
:100160000103184718C3000038C30000103A24BF29
:1001700078C878C1FAD8520724BF30C830C144BF0C
:1001800004680C607047000000230024002500264E
:10019000103A28BF78C1FBD8520728BF30C148BFEA
:1001A0000B607047662909F0BA82642906F0608402
:1001B000782906F09984002070471FB507F0B0F841
:1001C00004000020002108F0C9F9E0601FBD10B54F
:1001D00010BD07F0E9F91146FFF7EFFF00F0B8FA9C
:1001E00007F007FA03B4FFF7F2FF03BC05F010F9BC
:1001F000F0B589B006460F4615461C2D01DD09B045
:10020000F0BD002101AAE81C115488208DF80400DB
:100210008DF805608DF80650002405E0395DE01C7E
:1002200001AA1154601CC4B2AC42F7DB00240AE0FE
:1002300001A9E81C085C095D0844C1B201AAE81CD8
:100240001154601CC4B2E81C8442F1DB002405E0B8
:1002500001A9085D05F0EBF8601CC4B2281D8442BA
:10026000F6DB00BFCBE770B588B006460C461C2C09
:1002700001DD08B070BD0DF804400D21601C0DF8C3
:1002800000100A21A01C0DF80010002504E0705D8C
:100290000DF80500681CC5B2A542F8DB002505E095
:1002A0001DF8050005F0C3F8681CC5B2E01C8542C6
:1002B000F6DB00BFDDE72DE9FE4304460D46174699
:1002C0001E46DDE90A89200A8DF80000E0B28DF8AB
:1002D0000100280A8DF80200E8B28DF80300380A00
:1002E0008DF80400F8B28DF80500300A8DF806008C
:1002F000F0B28DF807004FEA18208DF8080008F0DA
:10030000FF008DF809004FEA19208DF80A0009F066
:10031000FF008DF80B000C216846FFF7A4FFBDE835
:10032000FE832DE9F04F87B004460D4616461F4662
:10033000DDE911ABDDF840904FF0000806E0002049
:100340000DF8080008F1010000F0FF08B8F11C0FDB
:10035000F5DB200A8DF80000E0B28DF80100280AD4
:100360008DF80200E8B28DF80300300A8DF8040021
:10037000F0B28DF80500380A8DF80600F8B28DF855
:1003800007004FEA19208DF8080009F0FF008DF8EA
:1003900009004FEA1A208DF80A000AF0FF008DF8D4
:1003A0000B004FEA1B208DF812000BF0FF008DF8B8
:1003B00013001398000A8DF814001398C0B28DF83A
:1003C00015001498000A8DF816001498C0B28DF824
:1003D00017001C226946AF20FFF70AFF07B0BDE8EF
:1003E000F08F08B501200C23FAA20021009005200F
:1003F00004F064FA01200C23F9A20A2100900520E0
:1004000004F05CFA01200C23F8A2142100900520CE
:1004100004F054FA01200C23F7A21E2100900520BD
:1004200004F04CFA01200C23F6A2282100900520AC
:1004300004F044FA04F07CF808BD7CB503210120E7
:1004400004F05CFD044608F0AFFFF14908604FF08E
:100450008B41EF48006808F05DFE0446ED4908F066
:10046000EBFFEB490860ECA006F0CEFAE848006824
:1004700008F0B6FD044622460B46EAA006F0C4FA90
:10048000E348006808F058FFE8494870E048006811
:1004900008F052FF044601200C2102232246CDE938
:1004A000001000213D2004F039FA00F0B7FDE049CA
:1004B00008800846B0F9000000280EDA01200C235D
:1004C000DCA20A210090352004F0F8F9D848008811
:1004D000404200B2D649088007E001200C23D6A292
:1004E0000A210090352004F0E9F9D148B0F9000064
:1004F000642190FBF1F401200C2102232246CDE976
:1005000000100A213D2004F009FA01200C23CBA29F
:100510000A2100904D2004F0D1F9C548B0F900003F
:100520000A2190FBF1F201FB120401200C21034689
:100530002246CDE900100A21532004F0EFF9C0490A
:10054000C048006808F078FF044608F0D9FE00B201
:10055000B74908800846B0F9000000280EDA0120EB
:100560000C23B4A214210090352004F0A7F9B04860
:100570000088404200B2AE49088007E001200C2309
:10058000ADA214210090352004F098F9A848B0F9E4
:1005900000000A2190FBF1F401200C2102232246E5
:1005A000CDE9001014213D2004F0B8F901200C23FE
:1005B000A2A2142100904D2004F080F99C48B0F9CB
:1005C00000000A2190FBF1F201FB120401200C2132
:1005D00003462246CDE900101421532004F09EF971
:1005E00097499948006808F027FF044608F088FEFC
:1005F00000B28F4908800846B0F9000000280EDAE2
:1006000001200C238BA21E210090352004F056F906
:1006100087480088404200B28549088007E00120F1
:100620000C2385A21E210090352004F047F9804854
:10063000B0F900000A2190FBF1F401200C21022303
:100640002246CDE900101E213D2004F067F901206B
:100650000C237AA21E2100904D2004F02FF974483B
:10066000B0F900000A2190FBF1F201FB1204012015
:100670000C2103462246CDE900101E21532004F030
:100680004DF96F497148006808F0D6FE044608F03D
:1006900037FE00B2664908800846B0F9000000281D
:1006A0000EDA01200C2363A228210090352004F0EB
:1006B00005F95F480088404200B25D49088007E0C4
:1006C00001200C235CA228210090352004F0F6F8CC
:1006D0005748B0F900000A2190FBF1F401200C21E9
:1006E00002232246CDE9001028213D2004F016F90E
:1006F00001200C2351A2282100904D2004F0DEF8A7
:100700004B48B0F900000A2190FBF1F201FB120402
:1007100001200C2103462246CDE900102821532058
:1007200004F0FCF84A48006808B9012000E0002005
:100730004749086003F0FCFE7CBD70B50446049D8B
:10074000601AEE1A7043561A90FBF6F0184470BD0A
:1007500008B54FF4A06005F0ABFC04F03FFD4FF48A
:10076000165004F06FFE04F00CFB04F029FB04F0BB
:10077000D7FC00F0DCFB04F063FA002003F0C8FDB6
:10078000002003F0D3FD642004F065FD03F0B4FE07
:100790000FE0012010232FA219460090082004F03A
:1007A0008DF803F0C5FE4FF4FA7004F054FD03F029
:1007B000F1FE03F081FB0028EBD1FFF712FE64206D
:1007C00004F049FD40F2CF2140F69F7004F00CFC8C
:1007D000C2E0000020414443203A202020200000B5
:1007E0002054656D703A202020200000205069744C
:1007F00063683A202020000020526F6C6C3A202061
:100800002020000020596177203A2020202000007D
:1008100000000020000004426464646464640D0A03
:100820000000000025640D0A000000007C0000208C
:100830006C0000202D000000200000002E000000B1
:10084000000020417000002074000020780000208B
:10085000B40122424D505536303530204572726F0A
:10086000720000001921012004F048FB3B49086098
:100870000846006808F080FD0546394908F0DCFDAF
:1008800004464FF08B4108F045FC364908600846A5
:100890000168334808F03EFC824608F0A1FB06469A
:1008A0000022314B08F0B2FA044600222F4B08F028
:1008B000BDF8804607F068FE2D49086008460068CC
:1008C00008F01EFD05465A2000234BF6BF3247F2C2
:1008D000A11100902846FFF730FF044608F04CFDB8
:1008E000244908600846006808F07AFB044622465E
:1008F0000B4621A006F088F81E48006808F01CFD91
:100900002249487022492348006808F095FB0546B3
:1009100008F012FD84B22146002006F012F81D48AE
:10092000006808F05DFB044622460B461AA006F05C
:100930006BF819210A2004F0E1FA044608F034FDAE
:10094000184908600846006808F04AFB0446224639
:100950000B4615A006F058F884E7000008000020B8
:10096000333353400C0000200000F03F006AF84091
:10097000100000201400002042656E643A25666471
:100980006567726565730D0A000000007C00002039
:100990000000344378000020C9E8D6C33A25660D2C
:1009A0000A000000040000206164637831303A25B9
:1009B000660D0A00704700BFFEE700BFFEE700BFFC
:1009C000FEE700BFFEE770477047704770470000C2
:1009D0000CB50020019000906C48006840F4803015
:1009E0006A49086000BF6948006800F40030009060
:1009F0000198401C0190009818B90198B0F5A06FBB
:100A0000F1D16248006800F4003010B1012000907C
:100A100001E0002000900098012843D15C48006864
:100A200040F010005A4908600846006820F00300B2
:100A300008600846006840F00200086053484068BB
:100A4000524948600846406848600846406840F49B
:100A5000806048600846406820F47C104860084682
:100A6000406840F4E81048600846006840F0807034
:100A7000086000BF4548006800F000700028F9D009
:100A80004248406820F003004049486008464068FA
:100A900040F00200486000BF3C48406800F00C0095
:100AA0000828F9D10CBD10B5FFF792FF10BD10B5A5
:100AB0003648006840F00100344908600846406844
:100AC00034490840314948600846006832490840C6
:100AD0002E4908600846006820F480200860084617
:100AE000406820F4FE0048604FF41F008860FFF764
:100AF000DAFF4FF000602949086010BD10B50021F1
:100B000000200022214B5B6803F00C0121B1042975
:100B100006D0082928D107E0214B224C236027E08A
:100B20001F4B204C236023E0184B5B6803F47010CC
:100B3000164B5B6803F48032022303EB904022B92A
:100B4000194B4343174C23600DE0104B5B6803F4D3
:100B5000003323B1144B4343124C236003E0104B8A
:100B60004343104C236003E00D4B0E4C236000BF49
:100B700000BF064B5B68C3F303130C4CE15C094BED
:100B80001B68CB40074C236010BD000000100240E2
:100B9000002002400000FFF8FFFFF6FE08ED00E035
:100BA00000127A001C00002000093D0020000020F7
:100BB00010B5022004F02BFB10BD08B50121102058
:100BC00005F00EF84FF44070ADF8000010208DF8DD
:100BD000030003208DF8020069468D4804F044FDAF
:100BE0004FF440718A4804F0ECFD08BD10B5884808
:100BF000001D006820F00F008549091D08600846A7
:100C0000006840F0030008600120824908608249C2
:100C1000C1F8A401FFF7CCFF00207E490860FFF770
:100C2000C7FF00207C49C1F8A40110BD10B5784869
:100C3000001D006820F00F007549091D0860084676
:100C4000006840F00300086000207249091D086038
:100C50007149C1F8A001FFF7ABFF01206D49091DE3
:100C600008606D49C1F8A001FFF7A2FF10BD10B5E3
:100C700000246748001D006820F00F006449091D2A
:100C800008600846006840F00800086001206149DB
:100C90000860FFF78DFF01205F49C1F8A401FFF74D
:100CA00087FF07E0601CC4B2FA2C03DDFFF7BEFF2C
:100CB000012010BD5748803800680028F2D15549FE
:100CC000091D086000BFF4E710B500205149091D57
:100CD00008604F48001D006820F00F004C49091DB6
:100CE00008600846006840F00300086000204A4998
:100CF000C1F8A001FFF75CFF01204649091D08600B
:100D0000FFF756FF00204449C1F8A40110BD10B5FB
:100D100000204049091D08603D48001D006820F082
:100D20000F003B49091D08600846006840F00300B9
:100D3000086001203849C1F8A001FFF739FF012000
:100D40003449091D0860FFF733FF00203249C1F81C
:100D5000A40110BD70B504462D48001D006820F0A8
:100D60000F002B49091D08600846006840F0030089
:100D7000086000202749091D0860002512E0E009ED
:100D8000244908606006040E01202349C1F8A4012B
:100D9000FFF70EFF00201F49091D0860FFF708FF3D
:100DA000681CC5B2082DEADB70BD70B5054600248D
:100DB0001748001D006820F00F001549091D086044
:100DC0000846006840F008000860002615E0002092
:100DD0001049091D0860FFF7EBFE01200E49C1F81C
:100DE000A4016006040E0B488038006808B1601C3E
:100DF000C4B2FFF7DDFE701CC6B2082EE7DB15B9E2
:100E0000FFF785FF01E0FFF75FFF204670BD0000A0
:100E1000000C0140A08121420080214270B50546AE
:100E20000C46FFF7E3FED020FFF794FFFFF71FFF0C
:100E300018B1FFF7FBFE012070BD2846FFF78AFFBF
:100E4000FFF715FF2046FFF785FFFFF710FF18B1EA
:100E5000FFF7ECFE0120EFE7FFF7E8FE0020EBE7ED
:100E600070B504460025BC2C01DB012510E0622C86
:100E700001DB02250CE02A2C01DB032508E0142C01
:100E800001DB042504E00A2C01DB052500E0062532
:100E900029461A20FFF7C2FF70BD70B50446B4F5AD
:100EA0007A7F01DD4FF47A74042C00DA04244FF4C5
:100EB0007A7090FBF4F0401EC5B229461920FFF766
:100EC000ADFF0546264604EBD671C1F34F00FFF790
:100ED000C7FF70BD70B50446FFF788FED020FFF74E
:100EE00039FFFFF7C4FE2046FFF734FFFFF7BFFED0
:100EF000FFF77CFED120FFF72DFFFFF7B8FE0020A3
:100F0000FFF753FF0546FFF791FE284670BD10B569
:100F10000446E006010E1C20FFF780FF10BD10B54F
:100F20000446E006010E1B20FFF778FF10BD10B548
:100F3000FFF743FE80216B20FFF770FF642004F071
:100F40008AF900216B20FFF769FF0320FFF7E7FF15
:100F50000020FFF7DCFF3220FFF79FFF0021382041
:100F6000FFF75CFF00216A20FFF758FF00212320D4
:100F7000FFF754FF80213720FFF750FF7520FFF760
:100F8000A9FF0446682C0BD101216B20FFF746FF17
:100F900000216C20FFF742FF3220FFF77EFF01E0C7
:100FA000012010BD0020FCE72DE9F04106460F4668
:100FB00014461D46FFF71AFE002141EA4601C8B259
:100FC000FFF7C8FEFFF753FE20B1FFF72FFE012009
:100FD000BDE8F0813846FFF7BDFEFFF748FEFFF79A
:100FE00005FE012101EB4601C8B2FFF7B3FEFFF792
:100FF0003EFE0DE0012C04D10020FFF7D6FE287044
:1010000003E00120FFF7D1FE2870601EC4B26D1C02
:10101000002CEFD1FFF70AFE0020D9E72DE9F84FA9
:101020006B46022241216820FFF7BEFF9DF80100B8
:101030009DF8001040EA01200FFA80FA504607F0B0
:10104000DDFC804600224B4B07F080FB06464A4AF7
:101050004A4B07F0CBFA044607F096FA8346484914
:10106000584608F0E9F9044608F04AF900B2BDE82C
:10107000F88F2DE9FC4104460D4616466B460622C4
:1010800043216820FFF790FF0746BFB99DF8010094
:101090009DF8001040EA012000B220809DF8030076
:1010A0009DF8021040EA012000B228809DF805005A
:1010B0009DF8041040EA012000B230803846BDE8B7
:1010C000FC812DE9FC4104460D4616466B4606227E
:1010D0003B216820FFF768FF0746BFB99DF8010074
:1010E0009DF8001040EA012000B220809DF8030026
:1010F0009DF8021040EA012000B228809DF805000A
:101100009DF8041040EA012000B230803846BDE866
:10111000FC812DE9F04105460E4617469846FFF73B
:1011200065FD002141EA4501C8B2FFF713FEFFF754
:101130009EFD20B1FFF77AFD0120BDE8F081304629
:10114000FFF708FEFFF793FD00240CE018F80400F9
:10115000FFF700FEFFF78BFD18B1FFF767FD0120D9
:10116000EBE7601CC4B2BC42F0DBFFF75FFD002080
:10117000E3E7000000407540A4703D0AD7434240B9
:101180000000C84210B5C8234FF48062F74940F60A
:10119000F63002F09BFC10BD10B586B00446F4A0FA
:1011A00000680390F3A000680290F3A0006801902B
:1011B000F2A00068009004F0030003A9085C8DF819
:1011C000140003A8C4F3C101405C8DF8150003A806
:1011D000C4F38111405C8DF8160004F0030002A9ED
:1011E000085C8DF8100002A8C4F3C101405C8DF8C2
:1011F000110002A8C4F38111405C8DF8120005AA09
:10120000032140F2264002F0E7FB18B14FF0FF3017
:1012100006B010BD04AA032140F22A4002F0DCFB14
:1012200010B14FF0FF30F3E701980590009804905B
:1012300004F0040058B19DF8140040F001008DF84E
:1012400014009DF8100040F001008DF8100004F02B
:10125000200058B19DF8150040F001008DF81500F0
:101260009DF8110040F001008DF8110004F4807029
:1012700058B19DF8160040F001008DF816009DF859
:10128000120040F001008DF8120005AA03214FF46E
:10129000886002F0A1FB10B14FF0FF30B8E704AA5C
:1012A000032140F2314002F097FB10B14FF0FF30C4
:1012B000AEE7B34804810020AAE71FB50446B04852
:1012C000007A00F0030054F820000190AC48007A46
:1012D00000F0040010B1019840420190A848007A43
:1012E000C0F3C10054F820000290A548007A00F035
:1012F000200010B1029840420290A148007AC0F349
:10130000811054F8200003909D48008900F48070FB
:1013100010B10398404203909A49019880FB010163
:10132000800F40EA810001909649029880FB0110ED
:10133000820042EA917002909249039880FB01106A
:10134000820042EA917003900198000E8DF800002F
:101350000198000C8DF801000198000A8DF8020038
:101360000198C0B28DF803006A4604214FF47470EE
:1013700002F032FB18B14FF0FF3004B010BD0298FC
:10138000000E8DF800000298000C8DF80100029804
:10139000000A8DF802000298C0B28DF803006A4678
:1013A00004214FF4757002F017FB10B14FF0FF30BD
:1013B000E3E70398000E8DF800000398000C8DF809
:1013C00001000398000A8DF802000398C0B28DF85E
:1013D00003006A4604214FF4767002F0FDFACCE770
:1013E00070B588B0064601A801F0FDFCBDF8040008
:1013F0000021C90341EA5045C4036148007A00F066
:10140000030056F8200005905D48007A00F00400C3
:1014100010B10598404205905948007AC0F3C100C8
:1014200056F8200006905648007A00F0200010B1CF
:101430000698404206905248007AC0F3811056F850
:10144000200007904E48008900F4807010B1079882
:10145000404207900598C117A0FB042301FB04310B
:1014600000FB0510810041EA927005900698C117B3
:10147000A0FB042301FB043100FB0510810041EABD
:10148000927006900798C117A0FB042301FB04315A
:1014900000FB0510810041EA927007900598000E4C
:1014A0008DF808000598000C8DF809000598000AD1
:1014B0008DF80A000598C0B28DF80B000698000E52
:1014C0008DF80C000698000C8DF80D000698000AA7
:1014D0008DF80E000698C0B28DF80F000798000E28
:1014E0008DF810000798000C8DF811000798000A7D
:1014F0008DF812000798C0B28DF8130002AA0C21D3
:101500004FF4257002F068FA08B070BD30B585B0B0
:1015100004461DA207CA02AB07C3C82C03DD4FF067
:10152000FF3005B030BDC82090FBF4F0401E85B2FE
:10153000280A8DF80000E8B28DF801006A46022101
:1015400040F2162002F048FA10B14FF0FF30E8E701
:1015500002AA0C2140F6C12002F03EFA10B14FF071
:10156000FF30DEE7064884810020DAE712980008A1
:101570004CCD6C000CC92C00365676002646660011
:10158000B000002009E3CA02FEF2ABC4AAF1DFDF1B
:10159000BBAFDFDF0146FC48808908800020704730
:1015A0002DE9FC4706460F4606F0070010B1B7F5D7
:1015B000C86F03DD4FF0FF30BDE8FC87384607F009
:1015C000F3FE8146F14907F0A5FD8046684601F02B
:1015D0008EFB9DF80000022806D0042816D00828AB
:1015E00026D0102848D135E04FF08D41404607F015
:1015F00023FF814607F0A0FE84B2E549404607F08C
:101600001BFF814607F098FE85B238E04FF08C4111
:10161000404607F011FF814607F08EFE84B2DD4997
:10162000404607F009FF814607F086FE85B226E0B6
:101630004FF08B41404607F0FFFE814607F07CFEED
:1016400084B2D549404607F0F7FE814607F074FEA4
:1016500085B214E04FF08A41404607F0EDFE814626
:1016600007F06AFE84B2CD49404607F0E5FE8146A8
:1016700007F062FE85B202E04FF0FF309CE700BF4A
:1016800020128DF80400E0B28DF8050028128DF8C4
:101690000600E8B28DF8070006F00100A0B101AA2B
:1016A00002214FF4EA7002F097F910B14FF0FF30C9
:1016B00082E70DF1060202214FF4927002F08CF9DC
:1016C00010B14FF0FF3077E706F00200A0B101AA99
:1016D00002214FF4EC7002F07FF910B14FF0FF30AF
:1016E0006AE70DF1060202214FF4947002F074F9DA
:1016F00010B14FF0FF305FE706F00400A0B101AA7F
:1017000002214FF4EE7002F067F910B14FF0FF3094
:1017100052E70DF1060202214FF4967002F05CF9D7
:1017200010B14FF0FF3047E7002045E738B50446D9
:101730000020009004F0010020B19DF8000040F06E
:101740003000009004F0020020B19DF8000040F04D
:101750000C00009004F0040020B19DF8000040F05F
:10176000030000906A4601214FF4A47002F034F99E
:1017700038BD38B50446012C01DA012402E0042CFE
:1017800000DD0424601EC0B200906A46012140F2D0
:101790004F1002F021F938BD38B50446052094FBFE
:1017A000F0F085B228128DF80000E8B28DF8010043
:1017B0006A4602214FF4EF7002F00EF938BD38B5D9
:1017C0000446052094FBF0F085B228128DF8000045
:1017D000E8B28DF801006A4602214FF4ED7002F084
:1017E000FBF838BDF8B505460E464FF47A7095FB08
:1017F000F0F000FB06F4200E8DF80000200C8DF8B0
:101800000100200A8DF80200E0B28DF803006A465C
:1018100004214FF4AE7002F0DFF8F8BD38B504468D
:10182000052094FBF0F084B220128DF80000E0B2A5
:101830008DF801006A4602214FF4AD7002F0CCF839
:1018400038BD38B50446052094FBF0F084B2201270
:101850008DF80000E0B28DF801006A4602214FF4D5
:10186000AC7002F0B9F838BD38B5044614B94FF081
:10187000FF3038BD6A4604214FF4587002F0E9F891
:1018800010B14FF0FF30F4E79DF8000000069DF81E
:10189000011040EA01409DF8021040EA01209DF845
:1018A0000310084320600020E3E738B50446200E0B
:1018B0008DF80000200C8DF80100200A8DF8020040
:1018C000E0B28DF803006A4604214FF4587002F02C
:1018D00083F838BD38B5044614B94FF0FF3038BD31
:1018E0006A4604214FF4717002F0B3F810B14FF062
:1018F000FF30F4E79DF8000000069DF8011040EA73
:1019000001409DF8021040EA01209DF803100843B1
:1019100000EB8000800020600020E0E738B504463E
:101920001420B4FBF0F4200E8DF80000200C8DF88C
:101930000100200A8DF80200E0B28DF803006A462B
:1019400004214FF4717002F047F838BD38B50446F1
:1019500064B120208DF8000028208DF8010030208F
:101960008DF8020038208DF8030004E0A322042142
:10197000684605F0ADF96A46042140F69E2002F063
:101980002BF800F083FC38BDB00000200000484375
:10199000000040460000C045000040450000C04433
:1019A00038B5044664B1C0208DF80000C2208DF81F
:1019B0000100C4208DF80200C6208DF8030004E069
:1019C0008B220421684605F083F96A46042140F61B
:1019D000982002F001F800F059FC38BD3EB50446ED
:1019E0006CB1FDA1D1E900208968CDE90020029108
:1019F0006A4609214FF4976001F0EEFF3EBDF9A25F
:101A0000D2E900109268CDE9010200916A460921ED
:101A10004FF4976001F0E0FFF0E73EB50446022086
:101A20008DF80000CA208DF80100E3208DF8020037
:101A300009208DF803006A460421682001F0CCFFDC
:101A4000A3208DF8000004F0400048B1C0208DF8BC
:101A50000100C8208DF80200C2208DF8030006E0C6
:101A6000A3208DF801008DF802008DF8030004F426
:101A7000C07048B1C4208DF80400CC208DF805005A
:101A8000C6208DF8060006E0A3208DF804008DF82E
:101A900005008DF80600A3208DF807008DF80800DA
:101AA0008DF809006A460A2140F6A72001F094FF4C
:101AB00004F0030018B120208DF8000002E0D820C7
:101AC0008DF800006A46012140F6B62001F084FF3F
:101AD00004F0200018B10120FFF780FF02E0002091
:101AE000FFF77CFF04F4C07008B304F4807060B1A9
:101AF000B2208DF800008B208DF80100B6208DF803
:101B000002009B208DF803000BE0B0208DF8000050
:101B100080208DF80100B4208DF8020090208DF80F
:101B200003006A46042140F6A22001F055FF04F0AC
:101B3000010020B3F8208DF800006A4601214FF41F
:101B40000B6001F049FFFA210720FFF729FD07206C
:101B5000FFF7ECFD0120FFF70CFE6420FFF71CFEF1
:101B60004FF4FA70FFF72BFEC821A148FFF73AFEA9
:101B70002820FFF753FE0A20FFF763FE08E0D82075
:101B80008DF800006A4601214FF40B6001F024FF3C
:101B900004F0020018B1D9208DF8000002E0D8202E
:101BA0008DF800006A46012140F23D7001F014FFFB
:101BB00004F0040018B10120FFF7F2FE02E000205B
:101BC000FFF7EEFE04F0100018B10120FFF7BEFE93
:101BD00002E00020FFF7BAFE44F008008549488182
:101BE00000F054FB00208349887304F0400018B1D2
:101BF0000846807B801D887304F4C07020B17D4846
:101C0000807B801D7B49887304F0140020B17948E3
:101C1000807B10307749887304F0030020B1754849
:101C2000807B001D7349887300203EBD01467148CA
:101C300040890880002070472DE9F0410446E07893
:101C400000F0C006E07800F03F05607800F0010089
:101C500098B1EF102846E91705EB5171C910A5EBB3
:101C6000C101491C01F0FF086248006820B16148C9
:101C7000414602683846904700BF607800F008008F
:101C800030B15C48406818B1B0115A4A5168884771
:101C90000020BDE8F08110B586B0044656A207CA00
:101CA00003AB07C357A207CA8DE80700012C09D070
:101CB000022C0ED103AA0B2140F6822001F08CFEEB
:101CC00006B010BD6A460B2140F6822001F084FE6A
:101CD000F6E74FF0FF30F3E72DE9F04F8DB0074600
:101CE000884615469946DDE9166B002400203080B1
:101CF0004049887B5A4605A901F0D1F918B1601E08
:101D00000DB0BDE8F08F3B48807A00F01400002849
:101D100061D09DF8140000069DF8151040EA0140BE
:101D20009DF8161040EA01209DF81710084328601E
:101D30009DF8180000069DF8191040EA01409DF832
:101D40001A1040EA01209DF81B10084368609DF8B6
:101D50001C0000069DF81D1040EA01409DF81E1071
:101D600040EA01209DF81F100843A8609DF820005C
:101D700000069DF8211040EA01409DF8221040EA3B
:101D800001209DF823100843E86004F11000C4B25C
:101D9000286800140190686800140290A868001474
:101DA0000390E8680014049001984043029901FBF5
:101DB0000100039901FB0100049901FB010ABAF13A
:101DC000706F02DBBAF1885F22DD00F05FFA00205D
:101DD0003080401E94E721E0B8AAB38DB4980D3549
:101DE0005D000000B8AAAAAAB088C3C5C700000059
:101DF00009E3CA02B0000020D8B1B9F38BA391B6B1
:101E000009B4D900DAB1B9F38BA391B6DAB4DA0028
:101E1000B6F9000040F48070308000BF3448807A0A
:101E200000F0400020B305A9601C085C095D40EA91
:101E3000012000B2A8F8000005A9E01C095C05AA71
:101E4000A01C105C41EA002000B2A8F8020005A91D
:101E5000601D095C201D105C41EA002000B2A8F85A
:101E60000400A01DC4B2B6F9000040F008003080A4
:101E70001F48408900F4C07008B305A9601C085CC5
:101E8000095D40EA012000B2388005A9E01C095C28
:101E900005AAA01C105C41EA002000B2788005A9C8
:101EA000601D095C201D105C41EA002000B2B88072
:101EB000A01DC4B2B6F9000040F0700030800C489C
:101EC000807A00F0030018B105A90819FFF7B4FEE5
:101ED000484600F048FD002012E701460448016032
:101EE0000020704701460248416000207047000012
:101EF000B000002038B50446F74890F82400C0B17F
:101F000014B10220009001E000200090F24A126813
:101F1000D17BF14A526810786B460122FFF7F9F83D
:101F200010B14FF0FF3038BD9DF80010EA48417401
:101F300023E0E948807A10B94FF0FF30F3E724B18D
:101F4000E548407C08B10020EDE714B10120009085
:101F500001E000200090E04A1268D17BDE4A52681E
:101F600010786B460122FFF7D4F810B14FF0FF3024
:101F7000D9E79DF80010D84841740020D3E738B560
:101F800000241FE0D4480068C07AA04204D0D248A0
:101F90000068407DA04200D112E0CF49496808782E
:101FA0006B4601222146FEF7FFFF10B14FF0FF30D4
:101FB00038BD9DF800202146C8A004F025FD00BFD3
:101FC000601CC4B2C44840680079A042DADC00203A
:101FD000EEE770B504460D46BF480068C07AA042DF
:101FE00004D0BD480068407DA04202D14FF0FF30D0
:101FF00070BDB94840680079A04202DC4FF0FF3064
:10200000F6E7B549496808782B4601222146FEF7D4
:10201000CBFFEDE738B50446AF4890F82300A04267
:1020200001D1002038BD14B13020009001E0002023
:102030000090A948807C20B19DF8000040F002008B
:102040000090A54890F8220020B19DF8000040F0D3
:1020500080000090A04A1268117D9F4A5268107853
:102060006B460122FFF755F810B14FF0FF30D9E76A
:10207000994880F823400020D4E738B5044604F09E
:10208000700010B10120009005E014B10020009014
:1020900001E040200090904A1268917C8E4A52687C
:1020A00010786B460122FFF734F820B100218A48EE
:1020B0008172481E38BD9DF8000020F0400186481E
:1020C00001730020009004F0400020B99DF800004A
:1020D00040F00400009004F0200020B99DF80000BA
:1020E00040F00200009004F0100020B99DF80000BC
:1020F00040F00100009004F0080020B99DF80000B5
:1021000040F038000090744A1268D17C724A5268DC
:1021100010786B460122FEF7FCFF20B100216E48CB
:102120008172481EC6E724B1082C02D00020FFF7B8
:1021300071FF6948847200210175322003F08BF829
:102140000020B7E738B504466348807CA04201D13F
:10215000002038BD002C46D05F4A126811795E4AD3
:10216000526810786B460122FEF71EFF10B14FF047
:10217000FF30EEE79DF8000020F020000090564A66
:1021800012681179544A526810786B460122FEF7A2
:10219000C0FF10B14FF0FF30DBE7032003F05BF826
:1021A000022000904C4890F8220020B19DF80000D9
:1021B00040F080000090484890F8230020B19DF83E
:1021C000000040F030000090434A1268117D424AFE
:1021D000526810786B460122FEF79BFF002851D011
:1021E0004FF0FF30B5E73C4A126811793A4A52681D
:1021F00010786B460122FEF7D7FE10B14FF0FF308A
:10220000A7E73548807A00F0010028B19DF800006A
:1022100040F02000009004E09DF8000020F0200035
:1022200000902D4A126811792B4A526810786B463B
:102230000122FEF76EFF10B14FF0FF3089E7032057
:1022400003F009F8244890F8220010B18020009093
:1022500001E000200090204890F8230020B19DF874
:10226000000040F0300000901B4A1268117D1A4AAD
:10227000526810786B460122FEF74BFF10B14FF009
:10228000FF3066E714488474002062E708B51248FE
:10229000807A10B94FF0FF3008BD002000900E4A40
:1022A0001268D17B0C4A526810786B460122FEF707
:1022B00030FF10B14FF0FF30EEE7074A1268517956
:1022C000054A526810786B460122FEF722FF68B17A
:1022D0004FF0FF30E0E70000300000202523357884
:1022E0003A20252335780D0A00000000F84A1268CC
:1022F0001179F74A526810786B460122FEF709FF00
:1023000010B14FF0FF30C7E7F14890F824000028E3
:1023100053D00C200090EE4A12681179EC4A5268B2
:1023200010786B460122FEF7F4FE10B14FF0FF303B
:10233000B2E7322002F08FFFC0200090E448807A9C
:1023400000F0010020B19DF8000040F02000009056
:10235000DF4A12681179DE4A526810786B46012212
:10236000FEF7D7FE10B14FF0FF3095E7D848407C1C
:1023700010B10220009001E000200090D44A1268C1
:10238000D17BD34A526810786B460122FEF7C1FE1A
:1023900010B14FF0FF307FE700200090CC4A126868
:1023A0005179CB4A526810786B460122FEF7B1FE94
:1023B000002855D04FF0FF306EE704200090C44A4B
:1023C00012681179C24A526810786B460122FEF7F2
:1023D000A0FE10B14FF0FF305EE7BD48807C20B911
:1023E000BB48807A00F0010010B94020009001E065
:1023F00060200090B64A12681179B54A5268107888
:102400006B460122FEF785FE10B14FF0FF3043E727
:10241000322002F020FFAE48407C10B10120009035
:1024200001E000200090AA4A1268D17BA84A5268B5
:1024300010786B460122FEF76CFE10B14FF0FF30B2
:102440002AE7A34A12685179A14A52681078A04B32
:1024500010330122FEF75DFE10B14FF0FF301BE795
:10246000002019E770B50446002624F001049848BE
:1024700090F8240008B1002070BD9548807A10B90A
:102480004FF0FF30F8E79248057C807A2040904971
:1024900008740846007CA04202D04FF0FF3600E0EE
:1024A000002614B98A48007D18B10120FFF722FDEB
:1024B00002E00020FFF71EFD3CB1FFF7E7FE20B170
:1024C000834805744FF0FF30D6E73046D4E738B57F
:1024D00004467F48807A10B94FF0FF3038BDBC2CDD
:1024E00002DB0120009015E0622C02DB022000904C
:1024F00010E02A2C02DB032000900BE0142C02DBFE
:102500000420009006E00A2C02DB0520009001E088
:10251000062000906E48C07A9DF80010884201D1D4
:102520000020DBE76A4A12689178694A526810789D
:102530006B460122FEF7EDFD10B14FF0FF30CDE705
:102540009DF800106248C1720020C7E738B5044604
:10255000282C02DD4FF0FF3038BDDCB90020FFF73A
:1025600059FD00208DF8000007208DF80100584A21
:102570001268917C564A526810786B460222FEF728
:10258000C8FD10B14FF0FF30E6E70021504801755B
:102590000020E1E70120FFF73DFD20208DF800003D
:1025A000012C06D100208DF801000520FFF78FFFD8
:1025B00017E0052C06DC01208DF801000520FFF74F
:1025C00086FF0EE0142C06DC02208DF801000A20A4
:1025D000FFF77DFF05E003208DF801001420FFF7D1
:1025E00076FF9DF80100072101EB8010C0B28DF845
:1025F0000100374A1268917C354A526810786B4660
:102600000222FEF786FD10B14FF0FF30A4E708214B
:102610002F48817200210173012101750020FFF70D
:1026200021FF002098E738B504462948807A10B980
:102630004FF0FF3038BD264890F8240010B14FF01D
:10264000FF30F7E72248007D50B134B1282C04DC7C
:10265000E0B2FFF77BFF0020ECE70020FFF776FFFA
:10266000042C01DA042404E0B4F57A7F01DD4FF490
:102670007A744FF47A7090FBF4F0401EC0B2009070
:10268000134A12685178124A526810786B46012238
:10269000FEF73FFD10B14FF0FF30CBE79DF8000093
:1026A000401C4FF47A7191FBF0F081B20848C1816F
:1026B0000146C9894810FFF70AFF0020BAE738B57C
:1026C00004460348807A28B94FF0FF3038BD000037
:1026D00030000020022C06D0042C07D0082C08D093
:1026E000102C0CD108E0002000900BE00820009096
:1026F00008E01020009005E01820009002E04FF064
:10270000FF30E3E700BFF948407A9DF80010B0EBD6
:10271000E10F01D10020D9E7F44A1268D179F34AD8
:10272000526810786B460122FEF7F3FC10B14FF0AF
:10273000FF30CBE79DF80000C110EC48417200204B
:10274000C4E738B50446E948807A10B94FF0FF3045
:1027500038BDFA2C09D0B4F5FA7F09D0B4F57A7FE8
:1027600009D0B4F5FA6F0CD108E0002000900BE01E
:102770000820009008E01020009005E0182000904C
:1027800002E04FF0FF30E3E700BFD848007A9DF841
:102790000010B0EBE10F01D10020D9E7D34A126855
:1027A0009179D24A526810786B460122FEF7B1FC4B
:1027B00010B14FF0FF30CBE79DF80000C010CB49BF
:1027C00008720020C4E71CB580208DF80000C74ABD
:1027D0001268917CC54A526810786B460122FEF758
:1027E00098FC10B14FF0FF301CBD642002F033FDA7
:1027F00000208DF80000BD4A1268917CBB4A5268E7
:1028000010786B460122FEF784FC10B14FF0FF30C8
:10281000EAE7B64A1268917DB44A526810786B466E
:102820000622FEF7C1FB10B14FF0FF30DCE79DF848
:102830000500C007400F9DF8031001F0010140EAB8
:1028400041009DF8011001F0010140EA010494B13A
:10285000012C03D10121A548C17431E0022C03D120
:102860000021A248C1742BE02146A1A004F0CCF8BD
:102870004FF0FF30B8E79D4A1268D1789B4A526802
:1028800010786B460122FEF78FFB10B14FF0FF303E
:10289000AAE79DF8000000F00F042CB99E4804F050
:1028A000B3F84FF0FF309FE7042C06D19BA004F053
:1028B000ABF801218D48C17402E000218B48C1743E
:1028C000FF218A488172FF2088490872FF218748CA
:1028D0004172C1724FF6FF71C181FF210174817491
:1028E0000121017380F82210002180F82310417526
:1028F00001751630016041608160163880F824103F
:1029000080F82510C1844FF4FA60FFF71AFF10B168
:102910004FF0FF3068E70220FFF7D1FE10B14FF013
:10292000FF3061E72A20FFF7D2FD10B14FF0FF30F2
:102930005AE73220FFF777FE10B14FF0FF3053E730
:102940000020FFF78FFD10B14FF0FF304CE7002063
:10295000FFF7F8FB10B14FF0FF3045E70020FFF71D
:102960008CFB002040E770477CB504460D465F486D
:10297000807A00F0700010B94FF0FF307CBD5B4AE8
:102980001268117B594A526810786B460622FEF78E
:102990000BFB10B14FF0FF30F0E79DF801009DF800
:1029A000001040EA012000B220809DF803009DF84D
:1029B000021040EA012000B260809DF805009DF8F9
:1029C000041040EA012000B2A08015B12846FFF7AC
:1029D000CAFF0020D2E77CB504460D464348807A02
:1029E00000F0080010B94FF0FF307CBD3F4A12687C
:1029F000517B3E4A526810786B460622FEF7D4FAA5
:102A000010B14FF0FF30F0E79DF801009DF8001085
:102A100040EA012000B220809DF803009DF80210DA
:102A200040EA012000B260809DF805009DF8041086
:102A300040EA012000B2A08015B12846FFF793FFBD
:102A40000020D2E72DE9FE4F05460C462748807A44
:102A500018B94FF0FF30BDE8FE8F244A1268917B11
:102A6000224A5268107802AB0222FEF79DFA10B19A
:102A70004FF0FF30EFE79DF809009DF8081040EA9D
:102A8000012006B214B12046FFF76DFF17494968CF
:102A9000C88806F089FC154901904968B1F9080019
:102AA00006F06AFC8346304606F066FC5946009004
:102AB00006F0C0FD8246019906F02CFB81461F49B5
:102AC00006F0BAFA80464FF08F4106F0B5FC074693
:102AD00006F016FC28600020BDE710B588B004465B
:102AE0001CB94FF0FF3008B010BD29E030000020C5
:102AF000556E737570706F7274656420736F667451
:102B0000776172652070726F647563742072657688
:102B10002025642E0A0000002CC4000848616C6661
:102B20002073656E73697469766974792070617257
:102B30007420666F756E642E0A00000000000C425F
:102B4000206830B9606820B9A06810B9002008B0CA
:102B500010BDFA494968087806AB03221146FEF712
:102B600023FA10B14FF0FF30F1E79DF8180008216B
:102B700001EB201000F00F00ADF800009DF81900E7
:102B800001EB201000F00F00ADF802009DF81A00D4
:102B900001EB201000F00F00ADF8040020684100A8
:102BA000BDF90000403091FBF0F000B2ADF810002C
:102BB00060684100BDF90200403091FBF0F000B2C6
:102BC000ADF81200A0684100BDF90400403091FB4F
:102BD000F0F000B2ADF81400D8494968087806ABA7
:102BE00006221146FEF7E0F910B14FF0FF30AEE7D4
:102BF0009DF819009DF8181040EA012000B2ADF8C8
:102C000008009DF81B009DF81A1040EA012000B250
:102C1000ADF80A009DF81D009DF81C1040EA012047
:102C200000B2ADF80C00BDF81000BDF80810084463
:102C300000B2ADF81000BDF81200BDF80A1008444B
:102C400000B2ADF81200BDF81400BDF80C10084435
:102C500000B2ADF81400BDF81000000A8DF818009D
:102C6000BDF81000C0B28DF81900BDF81200000ABE
:102C70008DF81A00BDF81200C0B28DF81B00BDF827
:102C80001400000A8DF81C00BDF81400C0B28DF8C5
:102C90001D00AA494968087806AB06221146FEF7CE
:102CA00038FA10B14FF0FF3051E700204FE70146EE
:102CB000A248007A30B1012807D0022809D00328A1
:102CC0000FD10AE0FA2008800EE04FF4FA70088075
:102CD0000AE04FF47A70088006E04FF4FA6008804A
:102CE00002E00020088000BF00BF002070470146BE
:102CF0009248407A30B1012807D0022808D0032832
:102D00000CD108E0022008700BE00420087008E0F5
:102D10000820087005E01020087002E04FF0FF3036
:102D2000704700BF8548C07C18B108784006000E87
:102D300008700020F4E701468048C07A082817D2BE
:102D4000DFE800F01704070A0D101318BC200880F4
:102D500013E06220088010E02A2008800DE0142093
:102D600008800AE00A20088007E00520088004E0C7
:102D700000BF00BF0020088000BF00BF00207047D8
:102D800001466E4890F8240010B14FF0FF307047B4
:102D90006A48C08908800020F9E7014600200880C1
:102DA000401E704701464FF0FF30704701466348B0
:102DB000007A30B1012807D0022808D003280CD1AE
:102DC00008E05F4808600BE05E48086008E05E4885
:102DD000086005E05D48086002E04FF0FF30704792
:102DE00000BF0020FBE701465448407A30B101287B
:102DF00008D002280AD0032810D10BE04FF48040FD
:102E000008800EE041F69C7008800AE04FF4805084
:102E1000088006E04FF40060088002E04FF0FF30C9
:102E2000704700BF4548C07C10B10888401008803A
:102E30000020F5E701464148007C087000207047FB
:102E400001463E48807A10B10120087001E0002060
:102E500008700020704738B504463848807A10B9A9
:102E60004FF0FF3038BD354A1268117C334A526842
:102E700010786B460222FEF797F810B14FF0FF3042
:102E8000F0E79DF801009DF8001040EA012000B233
:102E900020800020E6E72DE9FE4F0746884692464F
:102EA0001D46DDF830B000260024244890F82400A8
:102EB00010B1601EBDE8FE8F002028701F48807A88
:102EC00010B94FF0FF30F5E71C48007C10B94FF007
:102ED000FF30EFE71948007C00F0400008B1B01C5B
:102EE000C6B21648007C00F0200008B1B01CC6B283
:102EF0001248007C00F0100008B1B01CC6B20F48A8
:102F0000007C00F0080008B1B01DC6B20B4A126880
:102F1000917A0A4A526810786B460222FEF744F80A
:102F200010B14FF0FF30C5E79DF801009DF800108B
:102F300040EA0129B1450BDA0020BBE73000002050
:102F400000000343000083423333034233338341A1
:102F5000FC4840684088B9EB600F17DDF94A1268F9
:102F6000517CF84A526810786B460122FEF71CF833
:102F700010B14FF0FF309DE79DF8000000F0100009
:102F800020B1FFF783F96FF0010093E75046FFF798
:102F9000EAFCEC4A1268D17AEA4A526810786B4629
:102FA0003246FEF701F810B14FF0FF3082E799FB8F
:102FB000F6F0401E8BF8000000202870B4422AD0A2
:102FC000E048007C00F0080028B3601C1DF80000F9
:102FD0001DF8041040EA012000B2A8F80000E01C2F
:102FE0001DF80010A01C1DF8000041EA002000B2EE
:102FF000A8F80200601D1DF80010201D1DF800003B
:1030000041EA002000B2A8F80400287840F0080047
:103010002870A01D84B2B44213D0CA48007C00F0CE
:10302000400070B1601C1DF800001DF8041040EA5B
:10303000012000B23880287840F040002870A01CA1
:1030400084B2B44213D0BF48007C00F0200070B1BD
:10305000601C1DF800001DF8041040EA012000B2B9
:103060007880287840F020002870A01C84B2B442F8
:1030700013D0B448007C00F0100070B1601C1DF843
:1030800000001DF8041040EA012000B2B880287842
:1030900040F010002870A01C84B200200AE7F8B5A8
:1030A00004460F461646A74890F8240010B94FF082
:1030B000FF30F8BDA348807A10B94FF0FF30F8E731
:1030C000A04A1268917A9F4A526810786B46022291
:1030D000FDF76AFF10B14FF0FF30EAE79DF80100FD
:1030E0009DF8001040EA0125A54203DA0020307067
:1030F000401EDEE7934840684088B5EB600F17DD5F
:10310000904A1268517C8F4A526810786B460122AF
:10311000FDF74AFF10B14FF0FF30CAE79DF80000FD
:1031200000F0100020B1FFF7B1F86FF00100C0E728
:10313000E2B2844B1B68D97A824B5B6818783B46B5
:10314000FDF732FF10B14FF0FF30B2E795FBF4F01E
:10315000401E30700020ACE701467A4880F822100B
:10316000002070477CB5054676494968087801AB70
:1031700004220D21FDF718FF08B107207CBD9DF842
:103180000700C0F301109DF8041001F0E00140EACF
:10319000E1008DF800009DF80700C0F381009DF864
:1031A000051001F0E00140EAE1008DF801009DF812
:1031B000070000F003009DF8061001F0E00140EA6E
:1031C000E1008DF8020000241CE01DF8040018B98D
:1031D000002045F8240013E05B4845F8240006E091
:1031E00055F82400594906F027F945F824001DF840
:1031F0000400401EC0B20DF804000028F0D100BF4A
:10320000601CC4B2032CE0DB0020B7E72DE9FE4FC1
:1032100006460F4600256846FFF7A4FF002442E05B
:1032200056F8240057F82410A0EB010ABAF1000F59
:1032300001DB514601E0CAF10001084606F09CF8A6
:1032400083464FF08F4105F065FF80465DF824000E
:10325000002106F021F816D05DF82410404605F054
:1032600059FF82464FF07E5106F0E4F9814629F07D
:10327000004A3748416A504606F0AAF912D20120A6
:10328000A04005430EE03248C169404606F0A0F870
:1032900005D32F48016A404606F09AF902D2012070
:1032A000A0400543641C032CBADB2846BDE8FE8F12
:1032B0002DE9FC5F06460F4600252249496808783B
:1032C00001AB03220D21FDF76FFE10B10720BDE811
:1032D000FC9F9DF8040000F01F008DF804009DF88D
:1032E000050000F01F008DF805009DF8060000F0B5
:1032F0001F008DF80600002462E056F8240057F8FD
:103300002410A0EB010BBBF1000F01DB594601E0DB
:10331000CBF10001084606F02FF84FF08F410090E6
:1033200005F0F8FE814601A8005DC0B308490868B1
:1033300006F03AF883465946064805F0EBFE80460B
:103340000FE00000300000207B14AE3E1D5A843F89
:1033500030A4000800B04C45FE49404606F06CF829
:10336000804601A8005D401EC0B201A90855002892
:10337000F2D14146484605F0CDFE83464FF07E51DE
:1033800006F058F982462AF0004BF3488169584606
:1033900006F01EF913D20120A04005430FE0FFE71D
:1033A000ED480169484606F013F805D3EA4841693B
:1033B000484606F00DF902D20120A0400543641CE6
:1033C000032C9ADB284682E72DE9F04F87B00546AB
:1033D0000C46914601208DF8100000208DF8110058
:1033E000DE4A1268917CDD4A5268107804AB0222F2
:1033F000FDF78FFE20B14FF0FF3007B0BDE8F08F32
:10340000C82001F028FF00208DF81000D34A126870
:10341000D17BD24A5268107804AB0122FDF779FEC5
:1034200010B14FF0FF30E8E7CC4A12685179CB4A2F
:103430005268107804AB0122FDF76BFE10B14FF01B
:10344000FF30DAE7C54A1268917CC44A52681078A6
:1034500004AB0122FDF75DFE10B14FF0FF30CCE769
:10346000BE4A1268D17DBD4A5268107804AB012271
:10347000FDF74FFE10B14FF0FF30BEE7B74A1268BC
:103480001179B64A5268107804AB0122FDF741FE6B
:1034900010B14FF0FF30B0E70C208DF81000AF4AAC
:1034A00012681179AD4A5268107804AB0122FDF719
:1034B00030FE10B14FF0FF309FE70F2001F0CBFE40
:1034C000A648806A407A8DF81000A44A1268917864
:1034D000A24A5268107804AB0122FDF71AFE10B11F
:1034E0004FF0FF3089E79D48806A007A8DF8100020
:1034F0009A4A12685178994A5268107804AB0122AE
:10350000FDF707FE10B14FF0FF3076E7B9F1000F7D
:1035100007D09248806A807A40F0E0008DF8100071
:1035200004E08E48806A807A8DF810008B4A126819
:1035300091798A4A5268107804AB0122FDF7E9FDBF
:1035400010B14FF0FF3058E7B9F1000F07D08348B2
:10355000806AC07A40F0E0008DF8100003E07E48F9
:10356000C07A8DF810007D4A1268D1797B4A526882
:10357000107804AB0122FDF7CCFD10B14FF0FF3005
:103580003BE7B9F1000F02D0C82001F064FE4020F3
:103590008DF81000714A12681179704A52681078DB
:1035A00004AB0122FDF7B5FD10B14FF0FF3024E769
:1035B00078208DF81000694A12685179674A52687C
:1035C000107804AB0122FDF7A4FD10B14FF0FF30DD
:1035D00013E76149888901F03EFE00208DF8100054
:1035E0005E4A126851795D4A5268107804AB012234
:1035F000FDF78FFD10B14FF0FF30FEE6574A12681D
:10360000917A564A5268107804AB0222FDF7CCFC3E
:1036100010B14FF0FF30F0E69DF811009DF810104A
:1036200040EA012B0C209BFBF0F0C6B20020A86002
:1036300068602860A06060602060824665E0474A5C
:103640001268D17A454A5268107804AB0C22FDF713
:10365000ABFC10B14FF0FF30CFE69DF811009DF8A4
:10366000101040EA012000B2ADF808009DF81300E8
:103670009DF8121040EA012000B2ADF80A009DF852
:1036800015009DF8141040EA012000B2ADF80C00BE
:10369000BDF90810206808442060BDF90A10606870
:1036A00008446060BDF90C10A0680844A0609DF853
:1036B00017009DF8161040EA012000B2ADF8000096
:1036C0009DF819009DF8181040EA012000B2ADF8ED
:1036D00002009DF81B009DF81A1040EA012000B27C
:1036E000ADF80400BDF90010286808442860BDF951
:1036F0000210686808446860BDF90410A8680844AE
:10370000A8600AF1010000F0FF0AB24597DB1248F9
:10371000D0F800C02868C117090441EA1041070425
:1037200062460023384603F04AF932460023CDE9C9
:10373000020103F044F928600748D0F800C0686827
:10374000C117090441EA10410704624600233846C4
:1037500006E0000054E3853F30A40008300000205C
:1037600003F02DF932460023CDE9020103F027F9D9
:103770006860FE48D0F800C0A868C117090441EA93
:103780001041070462460023384603F018F9324618
:103790000023CDE9020103F012F9A860F348D0F844
:1037A00004C02168C817000440EA11480F046246AB
:1037B00000233846414603F002F932460023CDE9A2
:1037C000020103F0FCF82060E848D0F804C060680B
:1037D000C117090441EA1041070462460023384634
:1037E00003F0EDF832460023CDE9020103F0E7F8DB
:1037F0006060DE48D0F804C0A068C117090441EA3F
:103800001041070462460023384603F0D8F83246D8
:103810000023CDE9020103F0D2F8A060A0680028DF
:1038200004DDA068A0F58030A06003E0A06800F58A
:103830008030A0600020E0E538B50446CC4890F820
:103840002400A04201D1002038BD24B3C84890F81C
:10385000250010B94FF0FF30F6E70020FEF74AFBD5
:103860000020FEF76FFCC249C88CFEF7DCFE00208A
:103870000090BF49496808786B4601222321FDF773
:1038800048FC0121BA4880F824100120FEF732FBE1
:10389000FEF7FCFC13E00020FEF72CFBB448007C94
:1038A0000090B349496808786B4601222321FDF74F
:1038B00030FC0021AE4880F82410FEF7E7FC002021
:1038C000C2E72DE9F04F8DB083460F4602200C90E1
:1038D000A74890F8240020B10020FFF7ADFF012693
:1038E00000E0002603A8FFF7E2F905A8FFF7FFF9BB
:1038F00001A8FFF720FA02A8FFF742FA9C4890F8C7
:103900000AA004A8FFF796FA002407E0002239462F
:103910005846FFF759FD00B902E0641C022CF5DBA4
:1039200000BF022C01D1002528E0002407E001227D
:1039300006A909A8FFF748FD00B902E0641C022CA3
:10394000F5DB00BF022C01D1002517E006A938469F
:10395000FFF75CFC00F0FF0809A95846FFF7A8FC38
:1039600000F0FF090025B9F1000F01D145F0010574
:10397000B8F1000F01D145F0020500BFFF207C49DE
:103980000872FF217A484172C1724FF6FF71C181FE
:10399000FF218172017401210173BDF80C00FEF753
:1039A000D0FE9DF81400FEF78AFEBDF80400FEF775
:1039B0008EFDBDF80800FEF736FE5046FEF75DFBB3
:1039C0009DF81000FEF74EFD16B10120FFF734FF01
:1039D00028460DB0BDE8F08FF8B504460D461646F2
:1039E00016B94FF0FF30F8BD6148807A10B94FF03A
:1039F000FF30F8E720128DF80000E0B28DF80100EA
:103A00009DF8010028445A4949684989884202DDE5
:103A10004FF0FF30E7E7564A1268117E544A526869
:103A200010786B460222FDF774FB10B14FF0FF30A7
:103A3000D9E7EAB24E4B1B68597D4D4B5B6818784D
:103A40003346FDF766FB10B14FF0FF30CBE70020A7
:103A5000C9E7F8B504460D46164616B94FF0FF30D3
:103A6000F8BD4348807A10B94FF0FF30F8E72012D4
:103A70008DF80000E0B28DF801009DF801002844A7
:103A80003B4949684989884202DD4FF0FF30E7E74A
:103A9000374A1268117E364A526810786B46022205
:103AA000FDF737FB10B14FF0FF30D9E7EAB2304BEA
:103AB0001B68597D2E4B5B6818783346FDF774FA06
:103AC00010B14FF0FF30CBE70020C9E72DE9F043FC
:103AD00085B005460E4690469946254890F8250043
:103AE00020B14FF0FF3005B0BDE8F08316B94FF0BC
:103AF000FF30F8E7002423E0281B102801DD102008
:103B000000E0281B87B2321939462046FFF764FFD0
:103B100010B14FF0FF30E6E701AA39462046FFF723
:103B200098FF10B14FF0FF30DDE730193A4601A998
:103B300003F0A2F810B16FF00100D4E7E01984B2ED
:103B4000AC42D9DB4FEA28208DF8000008F0FF00D6
:103B50008DF80100064A1268917E054A5268107875
:103B60006B460222FDF7D5FA38B103E030A4000815
:103B7000300000204FF0FF30B5E70121FC4880F80D
:103B80002510A0F826900020ADE70146F84890F8EF
:103B900024000870002070474FF0FF307047024645
:103BA0004FF0FF30704701464FF0FF307047F8B5D7
:103BB00005460F461446002C70D0B5F5FF5F01DDB9
:103BC000FF2605E0202D01DA012601E0C5F34716A6
:103BD00007B90127282C02DD4FF0FF30F8BDE4487B
:103BE000407D28BBE24890F8240038B10020FFF760
:103BF00023FE0121DE4880F8201003E00021DC488C
:103C000080F82010DA481630FFF751F8D8481830FD
:103C1000FFF76DF8D6481A30FFF78DF8D4481C30FE
:103C2000FFF7AEF8D248817A81771F30FFF702F9AB
:103C30000020FEF75FF90020FEF788FC00208DF8D9
:103C40000000CB4A12689178C94A526810786B46D6
:103C50000122FDF75EFA10B14FF0FF30BEE74020C1
:103C60008DF80000C24A1268D17BC14A52681078B0
:103C70006B460122FDF74DFA00B165E08DF800605A
:103C80008DF80170BA4A1268117AB94A52681078F0
:103C90006B460222FDF73DFA08B155E047E00520EA
:103CA00001F0D9FAB248407A072101EBC000C0B256
:103CB0008DF80000AE4A1268D179AD4A526810788A
:103CC0006B460122FDF725FA00B13DE020208DF87A
:103CD0000000012C03D100208DF801000EE0052C1E
:103CE00003DC01208DF8010008E0142C03DC022025
:103CF0008DF8010002E003208DF801009DF801001D
:103D0000072101EB8010C0B28DF80100984A1268BB
:103D1000917C974A526810786B460222FDF7F9F9B8
:103D200000B111E0012192484175002056E7904A08
:103D30001632002103E0505C00B105E0491C0C295B
:103D4000F9D34FF0FF3049E7FF2089490872FF217E
:103D500087484172C1724FF6FF71C181FF218172A4
:103D60000174012101730146887FFEF786F98049BD
:103D7000C88AFEF7E6FC7E49087EFEF7A0FC7C4977
:103D8000488BFEF7A4FB7A49888BFEF74CFC7849F8
:103D9000C87FFEF767FB764890F8200010B101203D
:103DA000FFF74AFD002172484175002016E770B503
:103DB00088B002A905A8FFF784FD0446032C3ED174
:103DC00001A8FEF7F3FF059805F0D6FA064601991B
:103DD00005F032FB054605F093FA0590069805F0CC
:103DE000CBFA0646019905F027FB054605F088FA4F
:103DF0000690079805F0C0FA0646019905F01CFBED
:103E0000054605F07DFA079005A8FDF756FA6846C5
:103E1000FEF7E9FFBDF80010029848430290BDF894
:103E20000010039848430390BDF8001004984843DD
:103E3000049002A8FDF7D4FA002008B070BD01205C
:103E4000FBE7014691F90020002A01DD00201EE079
:103E500091F90020002A01DA042018E091F90120EC
:103E6000002A01DD012012E091F90120002A01DA87
:103E700005200CE091F90220002A01DD022006E075
:103E800091F90220002A01DA062000E0072070479D
:103E900010B504462046FFF7D4FF0346E01CFFF7A9
:103EA000D0FF43EAC00083B2A01DFFF7CAFF43EA78
:103EB000801083B2184610BD70B50024FCF77DFE5B
:103EC000FEF781FC002840D17820FEF7D6F8C4B276
:103ED0000CB1012070BD7820FEF7C4FAC4B20CB159
:103EE0000220F7E76420FEF79EFBC4B20CB103206A
:103EF000F0E7FDF747F9C4B20CB10420EAE71D482A
:103F0000FFF7C6FF0546FDF747F9C4B20CB105201F
:103F1000E0E740F27310FDF780FDC4B20CB106205B
:103F2000D8E76420FDF7F2FAC4B20CB10720D1E75C
:103F3000FFF73DFF04460CB10820CBE70120FFF757
:103F40007BFCC4B21CB10920C4E70A20C2E70020F0
:103F5000C0E770B50024FCF730FEFEF734FC002803
:103F600044D17820FEF789F8C4B22CB1012070BD8D
:103F7000300000205C0000207820FEF773FAC4B205
:103F80000CB10220F3E76420FEF74DFBC4B20CB184
:103F90000320ECE7FDF7F6F8C4B20CB10420E6E725
:103FA0009C48FFF775FF0546FDF7F6F8C4B20CB163
:103FB0000520DCE740F27310FDF72FFDC4B20CB111
:103FC0000620D4E76420FDF7A1FAC4B20CB10720A3
:103FD000CDE7FFF7ECFE04460CB10820C7E701204F
:103FE000FFF72AFCC4B21CB10920C0E70A20BEE7D3
:103FF0000020BCE72DE9F04F99B004460D46164667
:104000004FF07E574FF000084FF000094FF0000AC4
:1040100012A813A918AB0EAACDE9001014A916A86E
:10402000FDF75AFE18B1012019B0BDE8F08FBDF8B8
:104030004C0000F4807000287ED00E9805F09CF9AA
:1040400083464FF09D4105F065F807460F9805F04F
:1040500093F983464FF09D4105F05CF88046109837
:1040600005F08AF983464FF09D4105F053F88146EB
:10407000119805F081F983464FF09D4105F04AF80B
:10408000824639464FF0804005F0D6F94946059002
:1040900005F0D2F9414607904FF0404005F0CCF9C9
:1040A0005146059005F0C8F90690079904F0C4FF41
:1040B000834604F095FFCDE9080103F021FF4FF09E
:1040C0006632554BCDE90A0104F0B0FCCDE90C0194
:1040D00004F05AFA206049464FF0804005F0ACF9F0
:1040E0004946029005F0A8F9414604904FF040403F
:1040F00005F0A2F94146029005F09EF9039004995B
:1041000005F098FA83464FF07E5104F095FF059034
:1041100004F066FFCDE9080139464FF0804005F014
:104120008BF94146039005F087F9494604904FF01A
:10413000804005F081F900E068E05146039005F009
:104140007BF98346049904F077FF059004F048FF5B
:10415000CDE90601DDE9082304F01AF94FF06632D3
:104160002D4BCDE90A0104F061FCCDE90C0104F00E
:104170000BFA28605146504605F05EF94946049016
:10418000484605F059F941460390404605F054F978
:1041900039460190384605F04FF90090019904F036
:1041A0004BFF0290039905F045FA8346049905F008
:1041B00041FA059004F014FFCDE908015146384654
:1041C00005F03AF949460490404605F035F9039068
:1041D000049904F031FF4FF08041059005F02CF96F
:1041E000834604F0FDFECDE90601DDE9082304F075
:1041F000CFF84FF06632084BCDE90A0104F016FC07
:10420000CDE90C0104F0C0F9306001E002200BE7B9
:10421000002009E75C00002066A64C40032000BF98
:104220000100A0F10102D0B2FAD1704700B58020A0
:10423000FE4908604020091F0860FFF7EFFF80205B
:10424000FA49091F086000BD00B58020F749091F21
:104250000860FFF7E3FF4020F449091F0860FFF7FB
:10426000DDFF4020F1490860FFF7D8FF00BD10B521
:104270000346002419E003F0800020B18020EB49C0
:10428000091F086002E08020E8490860FFF7C6FFC8
:104290004020E649091F0860FFF7C0FF4020E349BE
:1042A00008605806030E601CC4B2082CE3DB10BD86
:1042B00000B58020DD49091F086040200860FFF735
:1042C000ADFF8020D9490860FFF7A8FF4020D749FB
:1042D0000860FFF7A3FF00BD30B505460C46FFF7A9
:1042E000E7FF7820FFF7C3FFFFF7AEFF1CB14020C8
:1042F000FFF7BDFF02E00020FFF7B9FFFFF7A4FFC3
:104300002846FFF7B4FFFFF79FFFFFF78FFF30BD91
:1043100010B504461CB90021A620FFF7DDFF012CD3
:1043200003D10021A720FFF7D7FF10BD10B5044629
:104330003CB90021C820FFF7CFFF0021A120FFF7E3
:10434000CBFF012C07D10021C020FFF7C5FF0021C2
:10435000A020FFF7C1FF10BD00B50346012B04D11B
:104360008020B249091F086002E08020AF49086040
:104370004020AE49091F0860FFF750FF4020AB49BD
:104380000860FFF74BFF00BD70B500248020A749EF
:10439000091F0860FFF742FF002516E06006040EC3
:1043A0004020A249091F08608021A048143801F06C
:1043B000EEF908B144F00104FFF730FF40209B49BB
:1043C0000860FFF72BFF681CC5B2082DE6DB20460E
:1043D00070BD2DE9F04106460F4614461D46FFF715
:1043E00067FF3046FFF743FFFFF72EFF3846FFF722
:1043F0003EFFFFF729FFFFF75BFF711CC8B2FFF715
:1044000036FFFFF721FF08E0FFF7BEFF04F8010BBE
:104410000020FFF7A1FF681EC5B2681E0028F3D177
:10442000FFF7B2FF20700120FFF796FFFFF7FEFEB7
:104430000120BDE8F08110B50446FFF739FF2046A2
:10444000FFF715FFFFF700FF5120FFF710FFFFF701
:10445000FBFEFFF7EBFE012010BD38B505460C460C
:1044600000200090FFF724FF2846FFF700FFFFF72A
:10447000EBFEFFF789FF8DF800000020FFF76CFFCF
:10448000FFF782FF8DF801000120FFF765FFFFF7BE
:10449000CDFE9DF801009DF8001040EA012020802B
:1044A000012038BD30B505460C46FFF701FF284610
:1044B000FFF7DDFEFFF7C8FEAA20FFF7D8FEFFF7E3
:1044C000C3FEA520FFF7D3FEFFF7BEFE2046FFF791
:1044D000CEFEFFF7B9FEFFF7A9FE012030BD10B5F3
:1044E0000446FFF7E5FE2046FFF7C1FEFFF7ACFEEE
:1044F000FFF79CFE012010BD00B500218D20FFF7C5
:10450000EBFE00211420FFF7E7FE0021AF20FFF7AC
:10451000E3FE00BD00B500218D20FFF7DDFE002188
:104520001020FFF7D9FE0021AE20FFF7D5FE00BD19
:1045300030B500242BE004F1B001C8B20021FFF730
:10454000CBFE00210846FFF7C7FE00211020FFF731
:10455000C3FEFFF7ADFE7820FFF789FEFFF774FE7C
:104560004020FFF784FEFFF76FFE002509E0304989
:1045700001EBC501085DFFF77AFEFFF765FE681CD9
:10458000C5B2802DF3DBFFF751FE601CC4B2082CCE
:10459000D1DB30BD30B500240CE0002506E0002062
:1045A000234901EBC5010855681CC5B2802DF6DB17
:1045B000601CC4B2082CF0DBFFF7BAFF30BDF0B5C9
:1045C00014460B46CF1701EB5777C7F3C702CF1737
:1045D00001EB5777FF10A1EBC707FEB20123B340F1
:1045E000DDB24CB1124B03EBC0039B5C2B43104F6D
:1045F00007EBC007BB5420E00D4B03EBC0039B5CF3
:10460000DB430B4F07EBC007BB54094B03EBC00365
:104610009B5C2B43064F07EBC007BB54044B03EBDB
:10462000C0039B5CDB43024F04E00000140C01401C
:10463000C000002007EBC007BB54F0BD2DE9FF4FC1
:1046400084B081468A460020029083460698A0EBFB
:1046500009040798A0EB0A06CDF80490CDF800A055
:10466000002C01DD012705E00CB9002702E04FF026
:10467000FF376442002E02DD4FF0010806E016B954
:104680004FF0000802E04FF0FF386642B44201DD0F
:10469000254600E03546002003901EE0009AD1B286
:1046A000019AD0B2119AFFF78AFF02982044029033
:1046B000B3440298A84205DD0298401B029001987D
:1046C00038440190AB4504DDABEB050B009840444A
:1046D00000900398401C80B20390691C03988842A4
:1046E000DCDB08B0BDE8F08F2DE9F04306460F464D
:1046F00090460025444643E03A1BD1B27219D0B22D
:104700000122FFF75CFF3A1BD1B2721BD0B201222B
:10471000FFF755FF3A19D1B2721BD0B20122FFF751
:104720004EFF3A19D1B27219D0B20122FFF747FFFA
:104730007A19D1B23219D0B20122FFF740FF7A1BA9
:10474000D1B23219D0B20122FFF739FF7A1BD1B2B0
:10475000321BD0B20122FFF732FF7A19D1B2321BDD
:10476000D0B20122FFF72BFF6D1C05FB05F004FB07
:10477000040008FB1809B9F1000F01DD641E6D1E6D
:104780006000604308FB08F18842B5DABDE8F083B9
:104790002DE9FE4F0746884692461C460197CDF804
:1047A0000080082C02D14FF006091FE02046E317D5
:1047B00004EB5373DB1021464FEAE47C04EB5C7C92
:1047C0004FEAEC0CA4EBCC0CBCF1000F02D04FF084
:1047D000010C01E04FF0000C6344224604EBD27C54
:1047E0004FEA6C0C03FB0CF303F0FF09AAF1200065
:1047F000C6B200255EE0082C07D106EB4600FE4954
:1048000001EB400010F805B01DE00C2C07D106EBC1
:104810004600FA4901EB800010F805B013E0102CB7
:1048200005D1F74800EB061010F805B00BE0182C86
:1048300007D106EBC600F34901EB800010F805B084
:1048400001E0BDE8FE8F002002901CE00BF00100AB
:1048500028B1414638460C9AFFF7B1FE09E00C98A2
:1048600008B9012000E00020024641463846FFF723
:10487000A6FE4FEA6B0B08F1010000F0FF0802985A
:10488000401CC0B2029002980828DFDB781CC7B237
:10489000082C0BD004EBD4714A100199791A8A4282
:1048A00004D1019F00980830C0B20090DDF800806C
:1048B000681CC5B24D459EDB00BFC2E72DE9F8413B
:1048C00006460F4614461D46DDF81C8013E0CDF861
:1048D000008022782B4639463046FFF759FF082DD5
:1048E00002D1B01DC6B205E0284605EBD07106EB3B
:1048F0006101CEB2641C2078202802DB20787E285B
:10490000E5DDBDE8F88110B50246012000E0504326
:104910000B00A1F10104E1B2F9D110BD2DE9FF4F67
:1049200082B0064691461F46DDE90F4A4FF0000B64
:10493000082C01D14FF0020B002530E0781B401EFF
:10494000C1B20A20FFF7DFFFB9FBF0F00A21B0FB8C
:10495000F1F201FB1208B8F1000F0ED104EBD47193
:104960000BEB610101FB0561C8B223463022CDE9A2
:1049700000A40399FFF70CFF0FE004EBD4710BEBDD
:10498000610101FB0561C8B208F13001CAB22346DA
:10499000CDE900A40399FFF7FBFE681CC5B2BD4238
:1049A000CCDB06B0BDE8F08F2DE9FC4F074688460A
:1049B00016461C46BB46CDF804802046E21704EBA1
:1049C0005272D2102146E31704EB5373DB10A4EBB1
:1049D000C3030BB1012300E000231A44624392B2E7
:1049E0000092002555E0102C05D1874800EB4610B9
:1049F00010F805A01BE0182C07D106EBC600834970
:104A000001EBC00010F805A011E0202C05D1804872
:104A100000EBC61010F805A009E0402C05D17D4838
:104A200000EB462010F805A001E0BDE8FC8F4FF038
:104A300000091CE00AF0010028B1414638460B9AF3
:104A4000FFF7BDFD09E00B9808B9012000E0002048
:104A5000024641463846FFF7B2FD4FEA6A0A08F1BE
:104A6000010000F0FF0809F1010000F0FF09B9F1B1
:104A7000080FDFDB781CC7B2A7EB0B00A04204D104
:104A80005F4601980830C0B20190DDF80480681CD0
:104A900085B200988542A6DB00BFC6E708B5804610
:104AA00089469246002600274BE04FB91023324634
:104AB00018218020CDF800A0FFF776FF701CC6B249
:104AC000464522D14FF0000B1AE0012410E00025EA
:104AD0000AE0514800EBC400415D601E4E4A02EB03
:104AE000C0004155681CC5B2082DF2DB601CC4B281
:104AF000902CECDBFFF71CFD0BF1010000F0FF0B2D
:104B00004FEA09105845E0DC0026781CC7B2102F88
:104B100000D10027012410E000250AE03E4800EB08
:104B2000C400415D601E3C4A02EBC0004155681C58
:104B3000C5B2082DF2DB601CC4B2902CECDBFFF791
:104B4000F7FCB2E72DE9FF4F05460E4617461C4617
:104B5000DDF838904FF0000A0095B3462046E21782
:104B600004EB5272D2102146E31704EB5373DB10AF
:104B7000A4EBC3030BB1012300E000231A44D4B219
:104B80004FF0000858E0002003904EE00D9810F818
:104B90000A0002900AF101001FFA80FA0020019039
:104BA0001DE0029800F0010028B14A46314628462F
:104BB000FFF705FD0AE0B9F1000F01D1012000E087
:104BC0000020024631462846FFF7F9FC02984010C3
:104BD0000290701CC6B20198401CC0B201900198AE
:104BE0000828DEDB681CC5B20098281AB84217D125
:104BF000009D0BF1080011E058A4000880A60008F1
:104C0000F4AA0008E4B0000840BE0008A0BF0008F5
:104C1000E8BF000868C00008C000002000F0FF0BDB
:104C20005E460398401CC0B203900398B842ADDBC7
:104C300008F1010000F0FF08A045A4DBBDE8FF8FEC
:104C400008B50121082000F0CBFFC020ADF800001E
:104C500014208DF8030003208DF8020069465548A2
:104C600000F002FDC021534800F0ABFD01210420FB
:104C700000F0B6FF0420ADF8000010208DF803000E
:104C800003208DF8020069464B4800F0EDFC04213A
:104C9000494800F096FD0421474800F094FDC820E3
:104CA00000F0D9FA0421444800F08BFD0021AE2029
:104CB000FFF712FB00210846FFF70EFB0021102032
:104CC000FFF70AFB00214020FFF706FB00218120AF
:104CD000FFF702FB0021CF20FFF7FEFA0021A12001
:104CE000FFF7FAFA0021C820FFF7F6FA0021A62004
:104CF000FFF7F2FA0021A820FFF7EEFA00213F208B
:104D0000FFF7EAFA0021D320FFF7E6FA0021084670
:104D1000FFF7E2FA0021D520FFF7DEFA002180201C
:104D2000FFF7DAFA0021D920FFF7D6FA0021F120A7
:104D3000FFF7D2FA0021DA20FFF7CEFA0021122085
:104D4000FFF7CAFA0021DB20FFF7C6FA0021302066
:104D5000FFF7C2FA00212020FFF7BEFA002102204F
:104D6000FFF7BAFA00218D20FFF7B6FA00211420D0
:104D7000FFF7B2FAFFF70EFC0021AF20FFF7ACFA05
:104D800008BD08B50121102000F02AFF4FF40050A3
:104D9000ADF8000014208DF8030003208DF8020008
:104DA0006946064800F060FC4FF40051034800F0EB
:104DB00008FD08BD000C0140000801400010014042
:104DC00000B591B001214FF4057000F009FF0121F9
:104DD000084600F0F8FE4FF4004000F065FE0220A7
:104DE000ADF82C0000208DF82F000BA9624800F0D0
:104DF0003BFC0120ADF82C0000208DF82F000BA902
:104E00005E4800F031FC5E4801F0E8FB5D48009030
:104E10005D48019000200290022003900020049041
:104E20008020059040000690800007902020089088
:104E30000002099000200A906946514801F070FC78
:104E400001214F4801F097FC4E484C3801F09EF983
:104E500000200C9001208DF834008DF835004FF4BF
:104E600060200E9000200F9002208DF840000CA9C9
:104E700044484C3801F0B1F905230122114641485C
:104E80004C3801F042FA052302220A213D484C38F1
:104E900001F03BFA01213B484C3801F0D5F90121E2
:104EA00038484C3801F0C5F936484C3801F0E3F980
:104EB00000BF34484C3801F0E3F90028F9D13148FB
:104EC0004C3801F0E7F900BF2E484C3801F0E7F903
:104ED0000028F9D101212B484C3801F0EAF911B032
:104EE00000BD0146012902D12748008870470A29E0
:104EF00002D125484088F9E70020F7E72DE9F04383
:104F000099B081460D464FF00008002409E048465C
:104F1000FFF7E7FF4DF82400052000F09CF9601C26
:104F2000C4B2AC42F3DB002411E000260AE05DF8D5
:104F30002670701C5DF820004DF82600701C4DF89E
:104F40002070C6B2681EB042F1DC601CC4B2681E9C
:104F5000A042EADC052404E05DF824008044601CE3
:104F6000C4B2681FA042F7DC401FB8FBF0F080B26B
:104F700019B0BDE8F08300000008014000100140B6
:104F8000080002404C240140660000205848008878
:104F90005748008820F0010055490880704770B5D7
:104FA00005460C465348C06940F002005149C861AB
:104FB0004F481C300580001F04804D48001F0088AA
:104FC00040F001004A49091F08804948103800880C
:104FD00040F0010046491039088002231D220321B8
:104FE000012000F07DF970BD70B505460C464148C2
:104FF000C06940F004003F49C8613F480580001F78
:1050000004803D482038008840F001003A492039AA
:10501000088039482C38008840F0010036492C3986
:10502000088002231E220021084600F059F970BDB5
:1050300010B531481C38008800F0010000284DD020
:105040002E4A2F492F48FEF7D5FF002846D12E497A
:105050002C48006803F0F0FF044604F06DF92B497A
:10506000088029492648006803F0E6FF044604F05A
:1050700063F92749088024492048006803F0DCFFD1
:10508000044604F059F92349088020480088000AA2
:10509000214988701D480078C8701D480088000AA2
:1050A00008711B48007848711A480088000A887106
:1050B00018480078C8710020184908700AE016499D
:1050C000164A1278885C00F0B2F914480078401C47
:1050D00012490870114800780928F0DB06481C388E
:1050E000008820F0010004491C39088010BD000030
:1050F00010040040001002402C08004078000020FE
:10510000740000207000002000003443860000205E
:10511000880000208A0000207C0000208C000020F5
:1051200000B585B00121042000F05AFD0121480797
:1051300000F063FD1020ADF8100000208DF8130082
:1051400003208DF8120004A9214800F08DFA1021E7
:105150001F4800F036FB00200090019002900220D2
:1051600003906946002001F06EFB0121002001F050
:1051700087FB0021084601F0E4FB05B000BD2DE9E6
:10518000F0470446204604F00FF98146114948468D
:1051900003F0C0FF81464FF08B41484604F04CF9C4
:1051A000824603F01DFF07464FF066320A4B03F0BC
:1051B000CDFA054603F0E8F98146484604F0BCF80C
:1051C00085B22946002001F0BCFBBDE8F087000055
:1051D0000008014000007A4466660A4010B56FF08E
:1051E000040000F0B4FF2E4800682E49B0FBF1F037
:1051F0002D4908700846007800EB4001C1EBC01053
:105200004FF6FF7101EAC0002849088010BD014631
:10521000254A12784A434FF0E0235A6100229A61EE
:105220001A46126942F001021A6100BF4FF0E022F3
:10523000106900F001021AB100F48032002AF5D0A2
:105240004FF0E022126922F001024FF0E0231A61D0
:1052500000229A6170470146144A12884A434FF06F
:10526000E0235A6100229A611A46126942F0010253
:105270001A6100BF4FF0E022106900F001021AB17C
:1052800000F48032002AF5D04FF0E022126922F0BB
:1052900001024FF0E0231A6100229A61704700007A
:1052A0001C00002000127A008E00002090000020D8
:1052B000504A0A400243504B1A6070470146072388
:1052C00023EA010212024C4B1B1D18684FF6FF0324
:1052D00018404A4B18431043474B1B1D186070473A
:1052E0002DE9F0410746884614461D462846FFF73B
:1052F000E5FFC5F1040007FA00F60F20284100EA97
:105300000800064306F00F06E21704EBD2625211C2
:10531000920002F1E022D2F800212146E31704EBCB
:10532000D3635B11A4EB431C012303FA0CF31A4370
:105330002046E31704EBD3635B119B0003F1E023EA
:10534000C3F800212E48005D40EA06102C4908559C
:10535000BDE8F08170B504460B46CE1701EB96769A
:10536000C6F38700CE1701EB9676B610A1EB860642
:10537000B606350E234B9B6943F00103214EB36102
:105380004FEAB63353F820300F26AE40B3431E4EDB
:1053900046F82030334653F8203004FA05F61E4311
:1053A000194B43F82060194B1B6801268E4033438C
:1053B000164E336002F0010343B1144B0C331B68EB
:1053C00001268E403343114E0C36336002F0020347
:1053D00043B10E4B08331E6801238B401E430B4B19
:1053E00008331E6070BD30BF704772B6704762B63A
:1053F0007047000080FFFF1F08ED00E00000FA0585
:1054000000E400E0001002400800014000040140F8
:10541000014600BF704700BF4F4A128802F04002A9
:10542000002AF9D0C2B24C4B1B1D1A80704700BF36
:105430004949098801F040010029F9D04649091D70
:105440000880704710B586B00446012144F204007C
:1054500000F0C6FB4FF40070ADF8140003208DF887
:10546000160018208DF8170005A93C4800F0FCF83C
:105470004FF48060ADF8140004208DF8170005A9E2
:10548000364800F0F1F825208DF8000003208DF853
:1054900001008DF8020001208DF80300684600F03D
:1054A0000CFE01940020ADF80800ADF80A00ADF83C
:1054B0000C00ADF810000C20ADF80E0001A9264834
:1054C00000F035FC012240F22551234800F0C7FCD2
:1054D0000121214800F0B7FC06B010BD10B540F224
:1054E00025511D4800F0A0FD10B31B4800F01CFD25
:1054F000C4B21B48008800F40040C8B918480088AE
:1055000000F4804060B10A2C03D0002014490880C8
:1055100020E01348008840F400401149088019E059
:105520000D2C06D10E48008840F480400C490880BC
:1055300010E00B480088C0F30D000A490C540848DD
:105540000088401C0649088008460088C72801DDFD
:105550000020088010BD0000003801400008014014
:10556000980000204005002009488047094800476E
:10557000FEE7FEE7FEE7FEE7FEE7FEE7FEE7FEE703
:10558000FEE7FEE704480549054A064B7047000060
:10559000AF0A00083101000868060020680C0020EE
:1055A000680800206808002010B50446CC488442F2
:1055B00008D10121042000F02DFB0021042000F07F
:1055C00029FB46E0C748844208D10121082000F0A9
:1055D00021FB0021082000F01DFB3AE0C248844274
:1055E00008D10121102000F015FB0021102000F04F
:1055F00011FB2EE0BD48844208D10121202000F09B
:1056000009FB0021202000F005FB22E0B84884427D
:1056100008D10121402000F0FDFA0021402000F0D7
:10562000F9FA16E0B348844208D10121802000F045
:10563000F1FA0021802000F0EDFA0AE0AE48844241
:1056400007D10121801500F0E5FA0021A01500F036
:10565000E1FA10BD10B50121084600F0DBFA002187
:10566000012000F0D7FA10BD2DE9F04102460025D7
:105670000026002000230024002791F803C00CF02E
:105680000F0591F803C00CF0100CBCF1000F03D013
:1056900091F802C04CEA050591F800C0BCF1000F7A
:1056A00031D0146800202BE04FF0010C0CFA00F30D
:1056B000B1F800C00CEA03069E4220D183004FF0EF
:1056C0000F0C0CFA03F7BC4305FA03FC4CEA040484
:1056D00091F803C0BCF1280F06D14FF0010C0CFA71
:1056E00000FCC2F814C00AE091F803C0BCF1480FF6
:1056F00005D14FF0010C0CFA00FCC2F810C0401CA0
:105700000828D1D31460B1F800C0BCF1FF0F34DD1C
:10571000546800202EE000F1080C4FF0010808FA50
:105720000CF3B1F800C00CEA03069E4221D18300BD
:105730004FF00F0C0CFA03F7BC4305FA03FC4CEADC
:10574000040491F803C0BCF1280F05D100F1080C46
:1057500008FA0CF8C2F8148091F803C0BCF1480FA5
:1057600007D100F1080C4FF0010808FA0CF8C2F854
:105770001080401C0828CED35460BDE8F0814FF65D
:10578000FF710180022181700421C17070470246BF
:10579000002093680B400BB1012000E0002070470F
:1057A0000146886880B2704702460020D3680B40EB
:1057B0000BB1012000E0002070470146C86880B2AC
:1057C000704701617047416170470AB1016100E0B3
:1057D00041617047C16070474FF480320A43826173
:1057E0008161826182698269704702460020434B71
:1057F00018684FF68073184040EA021008433F4B88
:10580000186070473E49C8617047F0B50A460023EA
:1058100000240021002500F00046B6F1004F02D11F
:10582000364EF16901E0354E7168C0F3034583B22D
:1058300000F44016B6F5401F08D121F070612F4EDC
:10584000766826F070662D4F7E6012E000F48016B8
:10585000B6F5801F06D1032606FA05F4A14341F0F0
:10586000706106E0460D360103FA06F6B14341F0D9
:10587000706122B1460D360103FA06F6314300F09D
:105880000046B6F1004F02D11C4EF16101E01B4E03
:105890007160F0BD30B500228B071C0F0F2303FA97
:1058A00004F2164B08338C1053F824309343134CF6
:1058B00008348D1044F8253023468C1053F82430DA
:1058C0008C07240F00FA04F423430C4C08348D1089
:1058D00044F8253030BD0A49DC31086070470000CB
:1058E00000080140000C014000100140001401407C
:1058F00000180140001C0140002001400000014050
:1059000000002042DF48006840F00100DD490860E7
:1059100008464068DC490840DA49486008460068A3
:10592000DA490840D74908600846006820F480201A
:1059300008600846406820F4FE0048604FF41F00ED
:1059400088607047CF49096821F48031CD4A1160E1
:105950001146096821F480211160B0F5803F03D021
:10596000B0F5802F0ED106E0C649096841F48031B8
:10597000C44A116007E0C349096841F4A021C14A43
:10598000116000E000BF00BF704710B50146002263
:10599000002300204A11012A02D1BA4C236806E0F4
:1059A000022A02D1B74C236A01E0B64C636A01F0C7
:1059B0001F02012494401C400CB1012000E0002093
:1059C00010BD38B5002000900024002500BF312014
:1059D000FFF7DBFF05460098401C00900098B0F5EB
:1059E000A06F01D0002DF2D03120FFF7CEFF08B11B
:1059F000012400E00024204638BD01460020A14AD1
:105A0000106820F0F80040EAC10010607047A0491B
:105A100008607047024600209A4B586820F47C10BA
:105A200042EA01031843974B58607047984908664B
:105A3000704701460020934A506820F00300084355
:105A4000506070478F48406800F00C007047014676
:105A500000208C4A506820F0F000084350607047E6
:105A600001460020874A506820F4E06008435060F7
:105A7000704701460020834A506820F4605040EA95
:105A8000C1005060704729B17E4A527A02437D4B73
:105A90005A7204E07B4A527A82437A4B5A727047B8
:105AA0007B49D8310860704701460020754A50682C
:105AB00020F440400843506070470021714A203272
:105AC0001170704A82F82010012802D004280AD1EF
:105AD00004E001216B4A2032117005E00521694A7A
