:020000040800F2
:10000000200F002045020008AB590008FD2500081C
:10001000A7590008DD1A000823640008000000004A
:10002000000000000000000000000000255E000845
:100030009922000800000000B55C0008395F000844
:100040005F0200085F0200085F0200085F0200080C
:100050005F0200085F0200085F0200085F020008FC
:100060005F0200085F0200085F0200085F020008EC
:100070005F0200085F0200085F0200085F020008DC
:100080005F0200085F0200085F0200085F020008CC
:100090005F0200085F0200085F0200085F020008BC
:1000A0005F0200085F0200085F0200085F020008AC
:1000B0005F0200085F0200089D5F00085F02000801
:1000C0005F0200085F0200085F0200085F0200088C
:1000D0005F0200084D6100085F020008D56100085A
:1000E0005F0200085F0200085F0200085F0200086C
:1000F0005F0200085F0200085F0200085F0200085C
:100100005F0200085F0200085F0200085F0200084B
:100110005F0200085F0200085F0200085F0200083B
:100120005F0200085F0200085F0200085F0200082B
:1001300000F002F800F076F80AA090E8000C824483
:100140008344AAF10107DA4501D100F06BF8AFF260
:10015000090EBAE80F0013F0010F18BFFB1A43F0A5
:100160000103184754CA000074CA00000A444FF043
:10017000000C10F8013B13F0070408BF10F8014B06
:100180001D1108BF10F8015B641E05D010F8016B4B
:10019000641E01F8016BF9D113F0080F1EBF10F8AF
:1001A000014BAD1C0C1B09D16D1E58BF01F801CBD2
:1001B000FAD505E014F8016B01F8016B6D1EF9D555
:1001C0009142D6D37047000000230024002500266A
:1001D000103A28BF78C1FBD8520728BF30C148BFAA
:1001E0000B60704766290BF0C884642900F0E0803A
:1001F000752900F0DD80782900F01681632900F070
:100200007285732900F07785002070471FB500F0D4
:10021000ABFD0400002000210AF05EFBE0601FBD82
:1002200010B510BD00F0A4FE1146FFF7EFFF07F078
:10023000D1FE00F0C2FE03B4FFF7F2FF03BC06F0EC
:1002400076F900000948804709480047FEE7FEE7C5
:10025000FEE7FEE7FEE7FEE7FEE7FEE7FEE7FEE776
:1002600004480549054A064B704700003D5F0008F9
:100270003101000820090020200F0020200B002061
:10028000200B0020704710B54C1084EA530404D5AD
:100290004042C1F1000138BF491E1B4204D5524201
:1002A000C3F1000338BF5B1E00F00DFA14F0804F5D
:1002B00004D04042C1F1000138BF491E14F0004F84
:1002C00004D05242C3F1000338BF5B1E10BD0000D2
:1002D0000FB4044910B503AA029800F011FD10BC38
:1002E0005DF814FB3C0100200FB41CB5074B06AAB7
:1002F0007B4469460090059800F0D3FC00206946D5
:1003000000F0E2FC1CBC5DF814FB0000D509000005
:1003100070B5044685690068C10601D5302600E045
:100320002026C00707D070BDD4E901213046904790
:10033000206A401C20626D1EF6D570BD70B5044663
:1003400085690078C00707D170BDD4E9012120205C
:100350009047206A401C20626D1EF6D570BD70B5B6
:100360000C460546012A05D02878800600D5EA69A2
:10037000002302E0012305E05B1C934202D2E05C13
:100380000028F9D1A869E618C01AA861286A18449B
:1003900028622846FFF7BCFF04E0D5E9012114F8E4
:1003A000010B9047B442F8D32846FFF7C7FF70BD52
:1003B0002DE9F0410646002410687529314616A53E
:1003C00010D0AFF30080002802DA404213A507E006
:1003D00031688A0701D512A502E0490704D511A5A5
:1003E000012401E0AFF3008000210A2206F1240776
:1003F00009E0B0FBF2FCB0FBF2F302FB1C00303072
:1004000078541846491C0028F3D123462A46304622
:10041000BDE8F04100F0D9B9000000002D00000057
:100420002B0000002000000070B504460D46214658
:100430001068AFF300802188090502D50F4A7A447D
:1004400002E00E4A7A440E32002104F1240305E052
:1004500000F00F060009965D5E54491C0028F7D194
:1004600020780023000704D5702D02D009B10223A3
:1004700011322046BDE8704000F0A7B972C40000F8
:100480002DE9F05F894604464FF0000ADFF874B1A9
:10049000FB44C0F820A02046E1688847002874D0BB
:1004A000252806D0D4E901219047206A401C20620B
:1004B000F1E700265F462046E16888472028054688
:1004C00007DB312D05D2781910F8200C08B106434E
:1004D000F1E7B00701D526F00406C4F81CA00027F8
:1004E000C4F818A02A2D09D0284606F019F838B308
:1004F00004EB8708303DC8F8185019E059F8041B80
:10050000204604EB87029161E1688847012F054688
:1005100018D1E069002820DA26F020061DE0D8F87E
:10052000180000EB800005EB40003038C8F81800D8
:100530002046E1688847054605F0F2FF0028EED125
:10054000012F0AD02E2D08D12046E16888477F1C54
:100550000546022F46F02006C4DBA069002803DA16
:10056000404246F00106A061F00701D026F01006D7
:100570006C2D0BD0682D09D04C2D39D06A2D35D07B
:10058000742D35D07A2D33D016E038E0E1682F464F
:1005900020468847B842054609D16C2F26D04FF433
:1005A0008060E168064320468847054604E06C2FDA
:1005B0001AD04FF4807006430DB3A5F141001928FD
:1005C00002D8203546F400664A4629462046266071
:1005D0004E46FFF707FE80B101280BD0F61D26F02E
:1005E000070000F1080956E74020E4E78020D8E73B
:1005F0000020D6E706F104094DE7284652E7206AB5
:10060000BDE8F09F48C4000040EA010310B59B0715
:100610000FD1042A0DD310C808C9121F9C42F8D06C
:1006200020BA19BA884201D9012010BD4FF0FF301D
:1006300010BD1AB1D30703D0521C07E0002010BD33
:1006400010F8013B11F8014B1B1B07D110F8013BBF
:1006500011F8014B1B1B01D1921EF1D1184610BDA0
:1006600002F0FF0343EA032242EA024200F05CBBCD
:100670004FF0000200B5134694469646203922BF3B
:10068000A0E80C50A0E80C50B1F12001BFF4F7AF86
:10069000090728BFA0E80C5048BF0CC05DF804EB68
:1006A000890028BF40F8042B08BF704748BF20F8D6
:1006B000022B11F0804F18BF00F8012B70477047D4
:1006C00070477047704753EA020C00F069802DE9CB
:1006D000F04B4FF00006002B1FBFB3FA83F503FA6F
:1006E00005F424FA05F65E4012BF1643B2FA82F50D
:1006F00002FA05F4C5F120051EBF22FA05FC44EA02
:100700000C04203556EA044C4FEA144418BF641C0C
:100710004FF000084FF00009904271EB030C39D301
:10072000002919BFB1FA81F701FA07F6B0FA80F78C
:1007300000FA07F6C7F120071EBF20FA07FC46EAB9
:100740000C062037B6FBF4FCA7EB0507103F07F0BB
:100750001F0BCBF120060CFA0BFB2CFA06F644BF5C
:10076000B3460026202FA4BF5E464FF0000B5BEA85
:10077000060C08BF4FF0010B19EB0B09ABFB027C19
:1007800048EB0608C01B06FB02CC0BFB03CC71EB4D
:100790000C01C1E70B46024641464846BDE8F08BD6
:1007A00013B54FF000004FF00001AFF30080BDE83B
:1007B0001C40704710B500F0DBFA006810BD10B5A2
:1007C000044600F0D5FA046010BD2DE9F0470D464F
:1007D00099469246044600F124080168880604D52B
:1007E000E06921F01001216000E00120A84201DD54
:1007F000471B00E00027A1697A1902EB0900081ADB
:10080000A0612078C00602D42046FFF781FD0026B3
:1008100008E0D4E901211AF806009047206A401C3C
:10082000761C20624E45F4DB2078C0060AD52046AF
:10083000FFF76EFD06E0D4E9012130209047206AE1
:10084000401C2062381EA7F10107F4DC07E0D4E960
:10085000012118F805009047206A401C2062281EDC
:10086000A5F10105F3DC2046FFF768FD20780006BE
:1008700002D50220BDE8F0870120FBE770472DE993
:10088000FF4F0C461E464FF0FF378BB0D2E90001F8
:10089000DDF860800A908A46C1F30A5505B93D46E5
:1008A000002108464FF00000BAF1000F00F44000AC
:1008B00005DA00EB80004FF4400101EA50004FEAF6
:1008C0009059B9F1010F00DDB9460A9850EA4A0083
:1008D0000ED044F61050A5F2FF3545432F14B8F161
:1008E000000F1ED07542291E1EDDC9F100021CE05A
:1008F000B8F1010F4FF0000001D0302103E0F243C6
:1009000005E02154401CB042FBDB304600220021B0
:1009100021540B99C1F80880C1E900200FB0BDE84F
:10092000F08FBD1B6D1CDEE74A4600DA694206A85F
:1009300000F0A8FA06AB93E8070003AB83E80700D2
:1009400050460A9900F080FB8DE80700A0F50050A2
:100950001F3800900398002D09DD42F21F014A461E
:10096000084403A90390684600F0DFFD08E0A0F505
:1009700000504A461F3803A90390684600F0E9FD7D
:100980008DE807000004000C03D04FF0FF30410851
:1009900000E01046B8F1000F03D000220092154687
:1009A0001EE0751E05D400F0E7F9303262556D1E69
:1009B000F9D5B3460122084302D000227F1C04E08F
:1009C0002078302801D100227F1E002A099786D086
:1009D0001DE0112D07DA00F0CFF9303262556D1CA1
:1009E00050EA0102F5D1084302D00098C8B10EE0E8
:1009F0000021681E05E0235C625C63542254401EA3
:100A0000491C8142F7DBAB46A81B401E0990002021
:100A100004F80B000B98099AC0F80880C0E9002B75
:100A20007CE711264FF0000859E72DE9F04F884682
:100A30000446D21D22F0070191B0D1E90001CDE9B1
:100A40000A0105F0F0FC02460B98C00F01D02D20E2
:100A500007E02068810701D52B2002E0202101EA70
:100A6000C000032A099001D0072A05DB034641464E
:100A7000204600F0C7F90BE12078800601D5E06937
:100A800000E00620B8F1650F814606D0B8F1660F88
:100A900018D0B8F1670F70D131E00020B9F1110F13
:100AA000009001DB112301E009F101030AAA01A969
:100AB0000CA8FFF7E4FEDDE90C70002609F1010542
:100AC000834647E001204B4600904FF000470AAABA
:100AD00001A90CA8FFF7D3FEDDE90DB00C995D4626
:100AE000002610B909F101000D18B9EB050003D477
:100AF000C0F1FF3609F10105A5EB09002BE0B9F1C2
:100B0000010F01DA4FF001090020B9F1110F009037
:100B1000484601DD112300E003460AAA01A90CA8FA
:100B2000FFF7ADFEDDE90C704D46002683462078C8
:100B300000070AD4AB4500DA5D4601A8012D04DDAB
:100B4000411911F8011C302907D04F4502DA17F17D
:100B5000040F04DA012082460FE06D1EEEE7002F3D
:100B600002DCED1B3E4403E0781CA84200DD7D1C46
:100B7000B81B00F1010A4FF000472078000703D4AA
:100B8000AA4501DB4FF0FF3A0021B7F1004F0DF10C
:100B900043088DF8431024D002202B23002F01DAC4
:100BA0007F422D230A21021EA0F1010000DC5FB16B
:100BB00097FBF1FC97FBF1F201FB1C7C17460CF153
:100BC000300C08F801CDEEE7A8F101000370218890
:100BD000090501D5452100E06521A0F1010800F8D3
:100BE000011C09980FA9A1EB0807FF1D00B1012006
:100BF000411901EBEA70A1693844081A401EA0614E
:100C00002078C00602D42046FFF782FB099828B15D
:100C1000D4E901219047206A401C20622078C00658
:100C200022D52046FFF774FB1EE0002E04DBB345FF
:100C300002DD01A8805D00E03020D4E90121904769
:100C4000206A401C2062761CAAF101005FEA000ABB
:100C50000AD100F089F8C0680168405CD4E901213C
:100C60009047206A401C2062281EA5F10105DCDCAB
:100C700007E0D4E9012118F8010B9047206A401CD5
:100C80002062381EA7F10107F3DC2046FFF756FB70
:100C9000032011B043E6000001694A1C0261087894
:100CA000704700B58FB0CDE90131002105910549AC
:100CB0007944CDE9031011466846FFF7E1FB0FB018
:100CC00000BD0000E5FFFFFF0A6802F8010B0A60A3
:100CD000704710B5436913B1AFF3008001E0FFF72F
:100CE0003EFB012010BD127800F124010A700022A1
:100CF0004A700122EDE711684FF0FF32E9E700008A
:100D0000074B70B50D467B44FFF7CBFF04462846E2
:100D100000F026F910B14FF0FF3070BD204670BDD5
:100D2000D76B00004FF000020429C0F0128010F0D1
:100D3000030C3FF49FACCCF1040CBCF1020F18BFC4
:100D400000F8012BA8BF20F8022BA1EB0C01FFF744
:100D500091BC5FEAC17C24BF00F8012B00F8012B95
:100D600048BF00F8012B704700487047E00800209A
:100D700000487047C008002030B5B0F10A024FEAC1
:100D8000900E71F100034EEA817EB0EB0E0061EB34
:100D900091014FEA101E4EEA017E10EB0E0041EB6E
:100DA00011114FEA102E4EEA016E10EB0E0041EBCE
:100DB00011214FEA104E4EEA014E10EB0E0041EBAE
:100DC0001141401841F100014FEAD00040EA417062
:100DD0004FEAD10110EB80054FEA810444EA907498
:100DE00044EB01046D1944EB0404521BA3414FF082
:100DF000000348BF0A3200D530BD401C41F100015C
:100E000030BD00002DE9F0411F460446032601686D
:100E1000072A01F4006004DB08B116A505E016A559
:100E200003E008B115A500E015A521F01000206031
:100E3000A069C01EA0610FB1401EA0612046FFF74F
:100E400067FA4FB1D4E9012138469047206A401C27
:100E50002062C01C206206E0206AFAE7D4E9012182
:100E600015F8010B9047761EF8D22046FFF766FA78
:100E7000BDE8F0814E414E006E616E00494E460065
:100E8000696E66002DE9F047814616468AB0334800
:100E900078440DC88DE80D0030487844801C03ACC0
:100EA0000DC884E80D0041F69B300844372190FBC3
:100EB000F1F290FBF1F5A5F1800501FB12041B3C5A
:100EC00002D56442012000E00020DFF890A08046B7
:100ED0000027FA44AAF1BE0A0DE0E00709D0324625
:100EE000684607EB47010AEB810100F032FB8DE811
:100EF000070064107F1C002CEFD1184F7F44AC3FDB
:100F000018E0E80714D007EB04100DF1180A90E878
:100F10000E008AE80E00C068F04201D198190890CE
:100F2000324606A903A800F014FB03AB83E80700D0
:100F30006D10641C002DE4D132466946B8F1000FF3
:100F400003A802D000F0F1FA01E000F002FBC9E9C9
:100F50000001C9F808200AB0BDE8F087C8BB00004E
:100F6000007B00F08000704700487047C0080020F8
:100F70007546FFF7F9FFAE4605006946534620F077
:100F80000700854618B020B5FFF76AF9BDE8204094
:100F90004FF000064FF000074FF000084FF0000B35
:100FA00021F00701AC46ACE8C009ACE8C009ACE8E8
:100FB000C009ACE8C0098D4670470446AFF3008015
:100FC0002046FFF738F900004FF0013C50F8042BA1
:100FD00051F8043B9A4221D1A2EB0C03934313EA4C
:100FE000CC1317D150F8042B51F8043B9A4215D179
:100FF000A2EB0C03934313EACC130BD150F8042B50
:1010000051F8043B9A4209D1A2EB0C03934313EA33
:10101000CC13DBD04FF00000704700BFD01A01BAEC
:10102000B1FA81F101F0180122FA01F0CB40C1F1CF
:101030002001DBB2C0B2C01A2CFA01F3D11A9143DD
:1010400011EAC311E6D170475FEA400C08BF91F086
:10105000000F4FEA8C234FEAC12243EA51514FEA75
:101060001C5018BF00F5F0404FEA300018BF41F0A7
:1010700000415FEA6C5C00F02980BCF1FF3F08BFD3
:1010800040F080407047130C06BF12044FF0100C64
:101090004FF0000C130E04BF12020CF1080C130FDA
:1010A00004BF12010CF1040C930F04BF92000CF169
:1010B000020CD30F04BF52000CF1010C11464FF08B
:1010C0000002A0F11F00A0EB0C00704711F0004FD0
:1010D00008BF704731F000413FF4D5AF0B0C06BF9D
:1010E00009044FF0100C4FF0000C0B0E04BF090266
:1010F0000CF1080C0B0F04BF09010CF1040C8B0F51
:1011000004BF89000CF1020CCB0F04BF49000CF1A5
:10111000010CCCF12003A0EB0C0022FA03F302FA3D
:101120000CF241EA030100F10100704720F07F4C0E
:1011300080EA030023F07F47ACEB070303F57C5301
:1011400000F0004003F1FF032DE980494FEA154B01
:1011500009B44FEA144325EA0B4E24EA03480FF280
:10116000042606EB132749083E785FEA320203FBA8
:101170000667C7F5000707FB06F64FEA54374FEA44
:10118000D64606F1020607FB066CCCF1005C4FEA7E
:101190001C472CEA074C07FB06F40CFB06F504EB96
:1011A00015464FEA961634BF00204FF000404FEA34
:1011B000D13706FB07FC4FEA1C4C0CFB0BF7D21B8C
:1011C00003FB0CF761EB07010CFB0EF7B0EB0740DC
:1011D00072EB17420CFB08F734BFA2EB0742B2EBED
:1011E000074261EB17414FEA0C444FEA910706FBB7
:1011F00007FC4FEA1C4C0CFB0BF7B0EBC74072EB43
:10120000573203FB0CF734BFA2EBC742B2EBC74225
:1012100061EB57310CFB0EF7B0EBC70072EB577266
:101220000CFB08F734BFA2EBC702B2EBC70261EBBD
:101230005771039F4FEA816141EA921104EBCC049C
:101240004FEAD1374FEA826206FB07FC42EA90126E
:101250004FEA80604FEA1C4C0CFB0BF7D21B03FBE0
:101260000CF761EB07010CFB0EF7B0EB074072EBDC
:1012700017420CFB08F734BFA2EB0742B2EB074260
:1012800061EB17414FEA8C554FEA910704EB9C2420
:1012900006FB07FC4FEA1C4C0CFB0BF7B0EBC740FE
:1012A00072EB573203FB0CF734BFA2EBC742B2EB31
:1012B000C74261EB57310CFB0EF7B0EBC70072EB86
:1012C00057720CFB08F734BFA2EBC702B2EBC702A0
:1012D00061EB577115EB4C254FEA816141EA9211A0
:1012E0004FEA82624FEAD13742EA901206FB07FCCE
:1012F00044F100044FEA80604FEA1C4C0CFB0BF7F2
:10130000D21B03FB0CF761EB07010CFB0EF7B0EBF4
:10131000074072EB17420CFB08F734BFA2EB074201
:10132000B2EB074261EB174115EB1C154FEA813117
:1013300041EA92414FEA823242EA90424FEA8030DB
:101340004FEA0C7644F1000448EA03434EEA0B48A6
:101350004FF0000EB2EB080C71EB030724BF62469E
:1013600039464EEB0E0E4FF0000B0018524149412A
:101370004BEB0B0BB2EB080C71EB03077BF1000B93
:1013800024BF624639464EEB0E0E4FF0000B00189C
:10139000524149414BEB0B0BB2EB080C71EB0307CD
:1013A0007BF1000B24BF624639464EEB0E0E51EA2C
:1013B000020718BF46F0010616EB0E7655F1000243
:1013C00054F1000103D5BDE88901BDE80088BDE8FE
:1013D0008901BDE80048B619524141EB0101A3F172
:1013E0000103704780807F7E7D7C7B7A7978777679
:1013F00076757473727171706F6E6E6D6C6C6B6AF2
:101400006A6968686766666564646363626161608F
:10141000605F5F5E5E5D5D5C5C5B5B5A5A5959580C
:101420005857575656555555545453535252525176
:10143000515050504F4F4F4E4E4D4D4D4C4C4C4BCC
:101440004B4B4A4A4A494949484848474747474613
:10145000464645454544444444434343434242424F
:1014600042414141002B26D4770021D01CB54FEAE0
:10147000370703B44FF010004FF010014FF0000099
:101480000FBCBDE810400BF1010BBBF1010F08BF11
:101490005FEA170722BF12F1010211F101014FF0BB
:1014A000004143F1000300F0004043EA00007047B0
:1014B000F9D35708DAE746EA064613F1400F4FEA38
:1014C00016461FDD13F1200FDFBF16430A46002129
:1014D00020335B42C8D0C3F1200746EA064602FA31
:1014E00007F74FEA164646EA0706C3F1200722FA35
:1014F00003F201FA07F721FA03F14FF0000342EA81
:101500000702B1E746EA020646EA06464FEA1646F1
:1015100046EA0106BCBF46EA0646360C4FF0000319
:101520004FF000024FF000019EE72DE9C0489346BE
:1015300030B491E8380007C831EA400C48BF34EABB
:10154000430C03D5FFF7F2FDFFF78CFFF0BCBDE8BD
:1015500000882DE9C048934630B491E8380007C8A8
:1015600010F0804F08BF13F0804F03D100F005F852
:10157000FFF778FFF0BCBDE8008820F07F4780EAE5
:10158000030023F07F4C07EB0C03A3F57C5300F022
:101590000040A3F1FE0392F0000F00F0B38095F03D
:1015A000000F00F077802DE901494FEA11404FEA22
:1015B000144621EA004800FB06FC24EA064708FB23
:1015C00006F607FB08F800FB07F718EB06484CEB9C
:1015D000164C4FEA124B18EB07484FEA15464CEBF6
:1015E000174022EA0B4E0BFB06FC25EA06470EFBD2
:1015F00006F607FB0EFE0BFB07F71EEB064E4CEB49
:10160000164C4FF000061EEB074E4CEB174B18EB39
:101610000B0840F1000018EB0E0B58EB000840F1EE
:1016200000008F1A4FF000013CBFC943661B14BF76
:10163000B5EB040C00213CBFC943F61B4FEA17442D
:101640004EEA8E0E27EA04454FEA1C4704FB076268
:101650002CEA074C05FB07F70CFB05F604FB0CFC1A
:1016600016EB074642EB174216EB0C4642EB1C42C8
:101670001BEB060658EB0202414146EA9E0601D5E5
:10168000BDE80189B619524141EB0101A3F1010303
:10169000BDE801894FEA14454FEA114724EA05469F
:1016A00021EA074C05FB07F406FB07F70CFB06F1E4
:1016B00005FB0CFC11EB074144EB17444FEA1247C2
:1016C00011EB0C4144EB1C4422EA074C05FB07F2EA
:1016D00006FB07F70CFB06F605FB0CFC16EB0746B2
:1016E00042EB174216EB0C4642EB1C456A1854F1CC
:1016F000000148BF7047B619524141EB0101A3F107
:101700000103704795F0000F37D04FEA11424FEABE
:10171000144721EA024624EA074C02FB07F106FBC4
:1017200007F70CFB06F402FB0CFC14EB074441EB3F
:1017300017414FEA154714EB0C4441EB1C4125EAD5
:10174000074C02FB07F506FB07F70CFB06F602FB4E
:101750000CFC16EB074645EB174516EB0C4645EB24
:101760001C42121951F1000148BF7047B61952418D
:1017700041EB0101A3F1010370474FEA14454FEA21
:10178000114724EA054621EA074C05FB07F106FB51
:1017900007F70CFB06F24FF0000605FB0CFC12EB02
:1017A000074241EB174112EB0C4251EB1C4148BF81
:1017B0007047921841EB0101A3F10103704721B179
:1017C000826842F00102826003E0826822F0010236
:1017D0008260704721B1826842F48072826003E0C7
:1017E000826822F4807282607047000010B504465F
:1017F0001248844208D10121401504F099FA0021D1
:10180000601504F095FA17E00D48844208D10121D3
:10181000001504F08DFA0021201504F089FA0BE080
:101820000848844208D10121C80304F081FA00214C
:101830004FF4004004F07CFA10BD00000024014089
:1018400000280140003C0140014600208A6802F067
:1018500004020AB1012000E0002070470146002088
:101860008A6802F008020AB1012000E000207047F7
:1018700030B502460020002350680F4C20400D79FF
:101880000C6844EA05242043506090680B4C2040CB
:10189000D1E902542C434D7944EA45042043906039
:1018A000D06A20F470000C7C641EE4B2234340EA4A
:1018B0000350D06230BD0000FFFEF0FFFDF7F1FFE6
:1018C000F0B504460D4600200021092D11DDE06829
:1018D000A5F10A0606EB4607072606FA07F1884334
:1018E000A5F10A0606EB460603FA06F10843E06096
:1018F0000CE0206905EB4507072606FA07F1884347
:1019000005EB450603FA06F108432061072A0FDAC2
:10191000606B561E06EB86071F2606FA07F1884302
:10192000561E06EB860605FA06F10843606322E0C0
:101930000D2A0FDA206BD61F06EB86071F2606FA44
:1019400007F18843D61F06EB860605FA06F1084321
:10195000206310E0E06AA2F10D0606EB86071F2661
:1019600006FA07F18843A2F10D0606EB860605FA92
:1019700006F10843E062F0BD816841F00801816032
:10198000704721B1826842F4A002826003E082685D
:1019900022F4A00282607047816841F004018160F6
:1019A0007047000000B591B001214FF4057004F0BC
:1019B000AFF90121084604F08BF94FF4004004F020
:1019C0007BF90220ADF82C0000208DF82F000BA928
:1019D0003D4800F0F0FC0120ADF82C0000208DF80F
:1019E0002F000BA9394800F0E6FC394800F05EFBF7
:1019F000384800903848019000200290022003905F
:101A00000020049080200590400006908000079000
:101A1000202008900002099000200A9069462C4876
:101A200000F0EAFB01212A4800F034FB29484C3839
:101A3000FFF7DCFE00200C9001208DF834008DF8BB
:101A400035004FF460200E9000200F9002208DF89A
:101A500040000CA91F484C38FFF70AFF052301225C
:101A600011461C484C38FFF72BFF052302220A21A0
:101A700018484C38FFF724FF012116484C38FFF76F
:101A8000A9FE012113484C38FFF799FE11484C3844
:101A9000FFF772FF00BF0F484C38FFF7DFFE00284A
:101AA000F9D10C484C38FFF777FF00BF09484C3894
:101AB000FFF7CAFE0028F9D1012106484C38FFF78C
:101AC00060FF11B000BD000000080140001001409F
:101AD000080002404C2401402A01002000BFFEE71C
:101AE00010B588B000241C2101A8FEF7C1FD5520C7
:101AF0008DF804008DF8050023208DF806000320E2
:101B00008DF8070006208DF80800C8208DF8090020
:101B100000208DF80A0003208DF80B00244800787F
:101B20008DF80C00234800788DF80D0006208DF804
:101B30000E00214800788DF80F00204800788DF8BD
:101B4000100004208DF811001D4800788DF8120057
:101B50001C4800788DF8130001208DF814001A48F5
:101B600000788DF81500194800788DF816000220CD
:101B70008DF81700164800788DF818001548007881
:101B80008DF8190005208DF81A00134800788DF89B
:101B90001B00124800788DF81C0000BF04E001A96A
:101BA000085D07F00DFE641C192CF8DB08B010BDB1
:101BB0000000002004000020080000200C0000208D
:101BC0001000002014000020180000201C0000203D
:101BD0002000002024000020280000202C000020ED
:101BE0002DE9F04782460024A1463549504609F0C8
:101BF00051FE054609F0B2FD04460A2094FBF0F4BC
:101C0000002C2CDB5A2C2ADC204609F012F907465E
:101C10002C4A2D4B09F038F9054609F0ADF88146FC
:101C2000484609F006F90746284A294B08F09CFE69
:101C3000054609F0A1F8814609EB89004FEA400901
:101C40000A2099FBF0F9484607F00AFD2148006890
:101C50002149086021480068214908602EE014F1FC
:101C6000370F2BDB002C29DA204609F0E2F8074673
:101C70001C4A1D4B09F008F9054609F07DF881461C
:101C8000484609F0D6F80746184A194B08F06CFE8A
:101C9000054609F071F8814609EB89004FEA4009D1
:101CA0000A2099FBF0F9484607F0DAFC0948006879
:101CB000094908600948006809490860BDE8F087DB
:101CC0000000204108AC1C5A647B23C096438B6CF7
:101CD000E7E49B4030000020280000203400002072
:101CE0002C00002021B0726891ED01C0378941605D
:101CF000E5E89B402DE9F04782460024A1461E49B5
:101D0000504609F0C7FD054609F028FD04460A20A3
:101D100094FBF0F414F1320F2BDB3C2C29DC204631
:101D200009F087F80746154A154B09F0ADF8054646
:101D300009F022F88146484609F07BF80746114A27
:101D4000114B08F011FE054609F016F8814609EB23
:101D500089004FEA40090A2099FBF0F9484607F04C
:101D60007FFC0A4800680A4908600A4800680A4976
:101D70000860BDE8F087000000002041BA490C026D
:101D80002B87134025068195C3F3A0403000002027
:101D90001000002034000020140000202DE9F04144
:101DA0000646002500241D49304609F073FD07460C
:101DB00009F0D4FC05460A2095FBF0F55A2D14DCF9
:101DC00000BF4FF4487404EB840044000A2094FBE5
:101DD000F0F4204607F044FC1148006811490860FF
:101DE000114800681149086015E05A2D13DB00BF47
:101DF00040F6C41404EB840044000A2094FBF0F481
:101E0000204607F02DFC0648006806490860064891
:101E1000006806490860BDE8F0810000000020412C
:101E20003000002018000020340000201C0000209A
:101E30002DE9F04782464FF0000900241A49504628
:101E400009F028FD054609F089FC81460A2099FB26
:101E5000F0F9484608F0EDFF0746144A144B09F024
:101E600013F8054608F088FF0446204608F0E1FF15
:101E70000746104A104B08F077FD054608F07CFF36
:101E8000044604EB840044000A2094FBF0F420464E
:101E900007F0E6FB0948006809490860094800683E
:101EA00009490860BDE8F08700002041A4703D0AA0
:101EB000D7232640AE47E17A144E974030000020E9
:101EC00008000020340000200C0000202DE9F0471D
:101ED00082460024A1461E49504609F0DBFC054617
:101EE00009F03CFC04460A2094FBF0F414F1320F94
:101EF0002BDB5A2C29DC204608F09BFF0746154AAD
:101F0000154B08F0C1FF054608F036FF81464846EC
:101F100008F08FFF0746114A114B08F025FD0546D2
:101F200008F02AFF814609EB89004FEA40090A20A0
:101F300099FBF0F9484607F093FB0A4800680A4904
:101F400008600A4800680A490860BDE8F087000098
:101F500000002041105839B4C87621C05839B4C89F
:101F60007607A04030000020000000203400002050
:101F7000040000202DE9F04782460024A1461E49B6
:101F8000504609F087FC054609F0E8FB04460A20A4
:101F900094FBF0F414F1320F2BDB322C29DC2046B9
:101FA00008F047FF07460022144B08F06DFF054676
:101FB00008F0E2FE8146484608F03BFF0746104A1B
:101FC000104B08F0D1FC054608F0D6FE814609EB1F
:101FD00089004FEA40090A2099FBF0F9484607F0CA
:101FE0003FFB094800680949086009480068094939
:101FF0000860BDE8F087000000002041004029C0D3
:10200000643BDF4F0D75974030000020200000201A
:10201000340000202400002039B1084A126801234E
:1020200083401A43054B1A6006E0044A12680123F4
:1020300083409A43014B1A607047000000740040CF
:1020400030B5002200230A4C226840F6FE7484401A
:10205000A243D1E900452C438D682C43CD6844EA66
:10206000050303FA00F42243014C226030BD000056
:102070000074004008B500220092054A009200F169
:102080000802009B1A440092009A116008BD0000EB
:102090000074004021B1026842F00102026004E0D5
:1020A00002684FF6FE731A400260704701684FF6EF
:1020B000FE72114001600021016041608160C160D9
:1020C0004B49884208D14A490839496841F00F0113
:1020D000474A083A51608AE045491431884208D19C
:1020E00043490839496841F0F001414A083A5160D2
:1020F0007DE03F492831884208D13D490839496887
:1021000041F470613A4A083A516070E038493C3114
:10211000884208D136490839496841F47041344A47
:10212000083A516063E032495031884208D1304961
:102130000839496841F470212D4A083A516056E047
:102140002B496431884208D129490839496841F44A
:102150007001274A083A516049E0254978318842A0
:1021600008D123490839496841F07061204A083A8A
:1021700051603CE01F49884206D1011F096841F0C7
:102180000F01021F116032E01A491431884208D150
:102190001849091F096841F0F001164A121F116021
:1021A00025E014492831884208D11249091F0968DD
:1021B00041F470610F4A121F116018E00D493C3163
:1021C000884208D10B49091F096841F47041094A46
:1021D000121F11600BE007495031884207D10549B1
:1021E000091F096841F47021024A121F11607047EB
:1021F000080002400804024010B50022026847F6B9
:10220000F0739A430C6A8B6823430C6923434C692F
:1022100023438C692343CC6923434C6A23438C6A50
:1022200023431A430260CB6843600B6883604B68AA
:10223000C36010BD00B585B00121042003F068FD26
:102240000121480703F054FD1020ADF810000020D4
:102250008DF8130003208DF8120004A90D4800F03A
:10226000AAF810210B4800F084F90020009001909A
:1022700002900220039069460020FFF7E1FE012151
:102280000020FFF7C9FE00210846FFF7F3FE05B066
:1022900000BD0000000801407047000051B18200FD
:1022A000A2F1C042126842F001038200A2F1C042D2
:1022B000136009E08200A2F1C0421268034B1A4089
:1022C0008300A3F1C0431A6070470000FEFF0F00B7
:1022D000D0E901121143C2681143026911434269F6
:1022E000114382691143C2691143026A1143426A70
:1022F0001143826A1143C26A1143026B114302689F
:102300009200A2F1C0421160816808290BD10168D6
:102310008900A1F1C041096841F0400201688900CB
:10232000A1F1C0410A60416B0968426B526841EA01
:102330000211426B926841EA0221426B928941EAA2
:102340000241426B128A41EA0251426B127D41EA1C
:102350000261426B926911430268521C9200A2F121
:10236000C0421160C16AB1F5804F1BD1816B096811
:10237000826B526841EA0211826B926841EA022143
:10238000826B128A41EA0251826B127D41EA02613C
:10239000826B9269114302689200A2F1C042C2F8B6
:1023A000041107E06FF0704201688900A1F1C0419B
:1023B000C1F8042170472DE9F041024600250026AE
:1023C000002000230024002791F803C00CF00F0523
:1023D00091F803C00CF0100CBCF1000F03D091F881
:1023E00002C04CEA050591F800C0BCF1000F31D0E5
:1023F000146800202BE04FF0010C0CFA00F3B1F848
:1024000000C00CEA03069E4220D183004FF00F0C5F
:102410000CFA03F7BC4305FA03FC4CEA040491F8F8
:1024200003C0BCF1280F06D14FF0010C0CFA00FCE0
:10243000C2F814C00AE091F803C0BCF1480F05D1FE
:102440004FF0010C0CFA00FCC2F810C0401C082828
:10245000D1D31460B1F800C0BCF1FF0F34DD546873
:1024600000202EE000F1080C4FF0010808FA0CF3F0
:10247000B1F800C00CEA03069E4221D183004FF060
:102480000F0C0CFA03F7BC4305FA03FC4CEA0404F6
:1024900091F803C0BCF1280F05D100F1080C08FA2F
:1024A0000CF8C2F8148091F803C0BCF1480F07D1B2
:1024B00000F1080C4FF0010808FA0CF8C2F810807F
:1024C000401C0828CED35460BDE8F081F0B50A4620
:1024D000002300240021002500F00046B6F1004F43
:1024E00002D11D4EF16901E01B4E7168C0F3034536
:1024F00083B200F44016B6F5401F08D121F0706198
:10250000154E766826F07066134F7E6012E000F478
:102510008016B6F5801F06D1032606FA05F4A143FE
:1025200041F0706106E0460D360103FA06F6B1434C
:1025300041F0706122B1460D360103FA06F63143CF
:1025400000F00046B6F1004F02D1034EF16101E008
:10255000014E7160F0BD0000000001400246002005
:1025600093680B400BB1012000E0002070474161EF
:1025700070470161704700000146012902D10548FA
:10258000008870470A2902D102484088F9E70020F4
:10259000F7E700002A01002070B5044600250FE08F
:1025A0005CB12146084803F038FF00BF802106488F
:1025B00003F066FE0028F9D000E070BD681CC5B2CB
:1025C000032DEDDB00BFF8E70048004070B504467E
:1025D000002510E0605D68B1615D074803F01DFFF4
:1025E00000BF8021044803F04BFE0028F9D0681C8E
:1025F000C5B200E070BDEDE70048004000BFFEE757
:1026000008B50121442003F083FB1820ADF8000039
:1026100048208DF8030069460648FFF7CCFE0120EC
:10262000ADF8000028208DF8030069460248FFF746
:10263000C2FE08BD001801400008014010B5044664
:1026400014B10120234908702248007858B31021A2
:102650002148FFF783FF50B108211F48FFF77EFF95
:1026600028B101211D48FFF779FF01281BD10A205D
:1026700004F010FB00201749087010211648FFF7DE
:102680006DFF08B9012010BD08211348FFF766FF50
:1026900008B90220F7E701211048FFF75FFF012882
:1026A00015D10320EFE710210B48FFF757FF012852
:1026B0000DD108210848FFF751FF012807D101215A
:1026C0000648FFF74BFF10B90120024908700020AF
:1026D000D9E7000024010020001801400008014053
:1026E00070B5044600260948058840884543002106
:1026F000084602F061FD02F0FBFD00BF02E0044865
:102700000480761CAE42FAD370BD0000D8070020CA
:102710000008006C10B5044649488471002C45D16E
:10272000F020474908804FF4A07048800846808810
:1027300045F21051884210D14FF430504049088181
:102740004FF4285048814FF42C5088814FF4F0709A
:1027500008804FF4487048801AE03948808841F674
:10276000631188420DD12C20354908812B204881E6
:102770002A2088814FF4F07008804FF44870488018
:1027800006E02C202E4908812A2048812B208881B0
:102790002B48808845F2103188424CD14FF4A0700C
:1027A000274908804FF4F070488044E04FF4A0704F
:1027B00023490880F02048800846808845F210515F
:1027C000884210D14FF430501D4908814FF42850F1
:1027D00048814FF42C5088814FF4487008804FF4A2
:1027E000F07048801AE01648808841F663118842EC
:1027F0000DD12C20124908812A2048812B20888164
:102800004FF4487008804FF4F070488006E02C20A8
:102810000B4908812A2048812B208881084880881C
:1028200045F21031884206D14FF4F0700449088017
:102830004FF4A0704880002002F0A4FB10BD0000FF
:10284000D80700202DE9F04F05460E46174698465A
:10285000DDF824A04FF0000B781B401C1FFA80FB12
:10286000344613E02146284602F0A6FC02F040FD63
:102870004FF0000906E00748A0F800A009F10100A8
:102880001FFA80F9D945F6DB601C84B24445E9DDC6
:10289000BDE8F08F0008006C00B59FB00121080270
:1028A00003F016FA01214FF4B47003F031FA01205D
:1028B000ADF8780010208DF87B0003208DF87A00A9
:1028C0001EA9FE48FFF777FD4CF23370ADF8780093
:1028D00018208DF87B0003208DF87A001EA9F84897
:1028E000FFF769FD4FF68070ADF8780018208DF87D
:1028F0007B0003208DF87A001EA9F248FFF75BFDEC
:1029000041F20100ADF8780018208DF87B0003201B
:102910008DF87A001EA9EC48FFF74DFD01200890C4
:10292000002009900F200A9000200B900C900D9031
:102930000E900190029003200390002004900590D7
:102940000690079006200F90002010901190102004
:1029500012900020139015901490169017904FF439
:1029600080501890002019904FF480401A90002059
:102970001B9008A81C9001A81D900FA8FFF7A8FCA9
:1029800001210620FFF78AFC322004F083F9D320CE
:1029900002F0A8FC02F0C2FACC49888002F0BEFA2C
:1029A000CA49888002F0BAFAC849888008468088F7
:1029B0004FF6FF7101EA0020C449888002F0AEFAA8
:1029C000C24989880843C14988800846808849F2FD
:1029D000413188427DD0042002F084FC02F09EFA4E
:1029E000BA49888002F09AFAB849888002F096FACB
:1029F000B6498880084680884FF6FF7101EA0020BA
:102A0000B249888002F08AFAB04989880843AF4900
:102A100088800846808848F25251884203D147F2A4
:102A20008970AA498880A948808847F289718842BC
:102A3000D0D0D42002F056FC02F070FAA34988806E
:102A400002F06CFAA149888002F068FA9F498880F8
:102A5000084680884FF6FF7101EA00209B49888074
:102A600002F05CFA994989880843984988800846A9
:102A7000808845F21031884262D055214FF4704071
:102A800002F040FCAA214FF2010002F03BFC52216F
:102A90004FF2020002F036FC08214FF2030002F070
:102AA00031FC01214FF2040002F02CFC4FF44540B0
:102AB00002F018FC02F032FA8449888008468088C7
:102AC0004FF6FF7101EA0020804988804CF20150E6
:102AD00000E035E002F006FC02F020FA7B4989882C
:102AE00008437A498880052004F0D4F87748808824
:102AF00045F21051884223D0A12002F0F3FB02F0EE
:102B00000DFA7249888002F009FA704988800846F7
:102B100080884FF6FF7101EA00206C49888002F03E
:102B2000FDF96A4989880843684988800846808891
:102B300045F26171884203D141F663106349888090
:102B40006248818862A0FDF7C3FB6048808849F233
:102B5000413188427ED1CF2002F0C4FB002002F038
:102B6000BBFBC12002F0B8FB302002F0B5FBED202A
:102B700002F0B8FB642002F0AFFB032002F0ACFBD4
:102B8000122002F0A9FB812002F0A6FBE82002F04F
:102B9000A9FB852002F0A0FB102002F09DFB7A200B
:102BA00002F09AFBCB2002F09DFB392002F094FB4F
:102BB0002C2002F091FB002002F08EFB342002F06A
:102BC0008BFB022002F088FBF72002F08BFB202019
:102BD00002F082FBEA2002F085FB002002F07CFB81
:102BE000002002F079FBC02002F07CFB1B2002F0E9
:102BF00073FBC12002F076FB012002F06DFBC520C3
:102C000002F070FB302002F067FB302002F064FB22
:102C1000C72002F067FBB72002F05EFB362002F00F
:102C200061FB482002F058FB3A2002F05BFB552084
:102C300002F052FBB12002F055FB002002F04CFBE9
:102C40001A2002F049FBB62002F04CFB0A2002F0E9
:102C500043FB00E0ABE0A22002F03EFBF22002F0DA
:102C600041FB002002F038FB262002F03BFB012054
:102C700002F032FBE02002F035FB0F2002F02CFBCB
:102C80002A2002F029FB282002F026FB082002F06F
:102C900023FB0E2002F020FB082002F01DFB542035
:102CA00002F01AFBA92002F017FB432002F014FBEC
:102CB0000A2002F011FB0F2012E00000000C01407E
:102CC000001401400018014000200140D8070020F6
:102CD000204C43442049443A25780D0A0000000066
:102CE00002F0FAFA002002F0F7FA002002F0F4FAFB
:102CF000002002F0F1FA002002F0EEFAE12002F0EA
:102D0000F1FA002002F0E8FA152002F0E5FA1720A7
:102D100002F0E2FA072002F0DFFA112002F0DCFAFA
:102D2000062002F0D9FA2B2002F0D6FA562002F043
:102D3000D3FA3C2002F0D0FA052002F0CDFA1020A0
:102D400002F0CAFA0F2002F0C7FA3F2002F0C4FADC
:102D50003F2002F0C1FA0F2002F0BEFA2B2002F051
:102D6000C1FA002002F0B8FA002002F0B5FA012002
:102D700002F0B2FA3F2002F0AFFA2A2002F0B2FAD3
:102D8000002002F0A9FA002002F0A6FA002002F0CA
:102D9000A3FAEF2002F0A0FA112002F0A3FA7820A3
:102DA00003F078FF292002F09DFA02F0A6B8FE4851
:102DB000808847F2897188427ED1112002F092FA10
:102DC000782003F067FF362002F08CFA002002F032
:102DD00083FA3A2002F086FA052002F07DFAB2204A
:102DE00002F080FA0C2002F077FA0C2002F074FA5C
:102DF000002002F071FA332002F06EFA332002F064
:102E00006BFAB72002F06EFA352002F065FABB20AB
:102E100002F068FA322002F05FFAC02002F062FA93
:102E20000C2002F059FAC22002F05CFA012002F0F4
:102E300053FAC32002F056FA102002F04DFAC420D3
:102E400002F050FA202002F047FAC62002F04AFAB7
:102E50000F2002F041FAD02002F044FAA42002F040
:102E60003BFAA12002F038FAE02002F03BFAD02031
:102E700002F032FA002002F02FFA022002F02CFABF
:102E8000072002F029FA0A2002F026FA282002F090
:102E900023FA322002F020FA442002F01DFA4220E8
:102EA00002F01AFA062002F017FA0E2002F014FAC5
:102EB000122002F011FA00E054E0142002F00CFAA3
:102EC000172002F009FAE12002F00CFAD02002F0FB
:102ED00003FA002002F000FA022002F0FDF90720B8
:102EE00002F0FAF90A2002F0F7F9282002F0F4F9CA
:102EF000312002F0F1F9542002F0EEF9472002F0FF
:102F0000EBF90E2002F0E8F91C2002F0E5F9172099
:102F100002F0E2F91B2002F0DFF91E2002F0DCF9DA
:102F20002A2002F0DFF9002002F0D6F9002002F09A
:102F3000D3F9002002F0D0F9EF2002F0CDF92B20D8
:102F400002F0D0F9002002F0C7F9002002F0C4F925
:102F5000012002F0C1F93F2002F0BEF9292002F061
:102F6000C1F922E79048808845F21031884240F04C
:102F70007C87ED2002F0B6F9012002F0ADF9FE20C9
:102F800002F0AAF9EE2002F0ADF9DE2002F0A4F979
:102F9000212002F0A1F9F12002F0A4F9012002F0B1
:102FA0009BF9DF2002F09EF9102002F095F9C42071
:102FB00002F098F98F2002F08FF9C62002F092F902
:102FC000002002F089F9E22002F086F9E22002F006
:102FD00083F9E22002F080F9BF2002F083F9AA20F1
:102FE00002F07AF9B02002F07DF90D2002F074F9B8
:102FF000002002F071F90D2002F06EF9002002F0BD
:103000006BF9112002F068F9002002F065F919202F
:1030100002F062F9002002F05FF9212002F05CF971
:10302000002002F059F92D2002F056F9002002F09C
:1030300053F93D2002F050F9002002F04DF95D20D7
:1030400002F04AF9002002F047F95D2002F044F94D
:10305000002002F041F9B12002F044F9802002F092
:103060003BF9002002F038F98B2002F035F90020FE
:1030700002F032F9962002F02FF9002002F02CF92C
:10308000B22002F02FF9002002F026F9002002F011
:1030900023F9022002F020F9002002F01DF903209C
:1030A00002F01AF9002002F017F9B32002F01AF921
:1030B000002002F011F9002002F00EF9002002F0C9
:1030C0000BF9002002F008F9002002F005F90020B9
:1030D00002F002F9002002F0FFF8002002F0FCF8F4
:1030E000002002F0F9F8002002F0F6F8002002F0CB
:1030F000F3F8002002F0F0F8002002F0EDF80020D4
:1031000002F0EAF8002002F0E7F8002002F0E4F80C
:10311000002002F0E1F8002002F0DEF8002002F0CA
:10312000DBF8002002F0D8F8002002F0D5F80020EB
:1031300002F0D2F8002002F0CFF8002002F0CCF824
:10314000B42002F0CFF88B2002F0C6F8002002F085
:10315000C3F8962002F0C0F8002002F0BDF8A120CC
:1031600002F0BAF8002002F0B7F8B52002F0BAF881
:10317000022002F0B1F8002002F0AEF8032002F0C5
:10318000ABF8002002F0A8F8042002F0A5F8002017
:1031900002F0A2F8B62002F0A5F8002002F09CF898
:1031A000002002F099F801E0D8070020B72002F0D3
:1031B00099F8002002F090F8002002F08DF83F20EE
:1031C00002F08AF8002002F087F85E2002F084F80E
:1031D000002002F081F8642002F07EF8002002F066
:1031E0007BF88C2002F078F8002002F075F8AC2013
:1031F00002F072F8002002F06FF8DC2002F06CF8A8
:10320000002002F069F8702002F066F8002002F059
:1032100063F8902002F060F8002002F05DF8EB20E7
:1032200002F05AF8002002F057F8DC2002F054F8BF
:10323000002002F051F8B82002F054F8002002F00B
:103240004BF8002002F048F8002002F045F800207A
:1032500002F042F8002002F03FF8002002F03CF8B3
:10326000002002F039F8002002F036F8BA2002F00F
:1032700039F8242002F030F8002002F02DF8002068
:1032800002F02AF8002002F027F8C12002F02AF804
:10329000202002F021F8002002F01EF8542002F055
:1032A0001BF8002002F018F8FF2002F015F80020AB
:1032B00002F012F8C22002F015F80A2002F00CF811
:1032C000002002F009F8042002F006F8002002F0C5
:1032D00003F8C32002F006F83C2001F0FDFF0020B7
:1032E00001F0FAFF3A2001F0F7FF002001F0F4FFAF
:1032F000392001F0F1FF002001F0EEFF372001F04E
:10330000EBFF002001F0E8FF3C2001F0E5FF00208A
:1033100001F0E2FF362001F0DFFF002001F0DCFFCA
:10332000322001F0D9FF002001F0D6FF2F2001F05C
:10333000D3FF002001F0D0FF2C2001F0CDFF0020B2
:1033400001F0CAFF292001F0C7FF002001F0C4FFEF
:10335000262001F0C1FF002001F0BEFF242001F073
:10336000BBFF002001F0B8FF242001F0B5FF0020D2
:1033700001F0B2FF232001F0AFFF002001F0ACFF0D
:103380003C2001F0A9FF002001F0A6FF362001F04B
:10339000A3FF002001F0A0FF322001F09DFF0020DC
:1033A00001F09AFF2F2001F097FF002001F094FF19
:1033B0002C2001F091FF002001F08EFF292001F068
:1033C0008BFF002001F088FF262001F085FF002000
:1033D00001F082FF242001F07FFF002001F07CFF3C
:1033E000242001F079FF002001F076FF232001F076
:1033F00073FF002001F070FFC42001F073FF622012
:1034000001F06AFF002001F067FF052001F064FF72
:10341000002001F061FF842001F05EFF002001F038
:103420005BFFF02001F058FF002001F055FF18204D
:1034300001F052FF002001F04FFFA42001F04CFFEB
:10344000002001F049FF182001F046FF002001F0A4
:1034500043FF502001F040FF002001F03DFF0C2011
:1034600001F03AFF002001F037FF172001F034FF90
:10347000002001F031FF952001F02EFF002001F027
:103480002BFFF32001F028FF002001F025FFE620AC
:1034900001F022FF002001F01FFFC52001F022FFF4
:1034A000322001F019FF002001F016FF442001F046
:1034B00013FF002001F010FF652001F00DFF002038
:1034C00001F00AFF762001F007FF002001F004FF61
:1034D000882001F001FF002001F0FEFEC62001F06F
:1034E00001FF202001F0F8FE002001F0F5FE17207A
:1034F00001F0F2FE002001F0EFFE012001F0ECFEF1
:10350000002001F0E9FEC72001F0ECFE002001F0F0
:10351000E3FE002001F0E0FE002001F0DDFE0020CF
:1035200001F0DAFEC82001F0DDFE002001F0D4FE3B
:10353000002001F0D1FE002001F0CEFE002001F0BD
:10354000CBFEC92001F0CEFE002001F0C5FE002018
:1035500001F0C2FE002001F0BFFE002001F0BCFE21
:10356000002001F0B9FE002001F0B6FE002001F0BD
:10357000B3FE002001F0B0FE002001F0ADFE0020FF
:1035800001F0AAFE002001F0A7FE002001F0A4FE39
:10359000002001F0A1FE002001F09EFE002001F0BD
:1035A0009BFE002001F098FEE02001F09BFE16201B
:1035B00001F092FE002001F08FFE1C2001F08CFE35
:1035C000002001F089FE212001F086FE002001F09C
:1035D00083FE362001F080FE002001F07DFE4620B3
:1035E00001F07AFE002001F077FE522001F074FE17
:1035F000002001F071FE642001F06EFE002001F059
:103600006BFE7A2001F068FE002001F065FE8B2041
:1036100001F062FE002001F05FFE992001F05CFEE7
:10362000002001F059FEA82001F056FE002001F014
:1036300053FEB92001F050FE002001F04DFEC420E1
:1036400001F04AFE002001F047FECA2001F044FECE
:10365000002001F041FED22001F03EFE002001F0EA
:103660003BFED92001F038FE002001F035FEE020BD
:1036700001F032FE002001F02FFEF32001F02CFEBD
:10368000002001F029FEE12001F02CFE162001F0BF
:1036900023FE002001F020FE1C2001F01DFE002072
:1036A00001F01AFE222001F017FE002001F014FEA6
:1036B000362001F011FE002001F00EFE452001F041
:1036C0000BFE002001F008FE522001F005FE002054
:1036D00001F002FE642001F0FFFD002001F0FCFD7E
:1036E0007A2001F0F9FD002001F0F6FD8B2001F0B9
:1036F000F3FD002001F0F0FD992001F0EDFD002028
:1037000001F0EAFDA82001F0E7FD002001F0E4FD52
:10371000B92001F0E1FD002001F0DEFDC42001F040
:10372000DBFD002001F0D8FDCA2001F0D5FD00200E
:1037300001F0D2FDD22001F0CFFD002001F0CCFD40
:10374000D82001F0C9FD002001F0C6FDE02001F005
:10375000C3FD002001F0C0FDF32001F0BDFD0020FD
:1037600001F0BAFDE22001F0BDFD052001F0B4FD3D
:10377000002001F0B1FD0B2001F0AEFD002001F0B2
:10378000ABFD1B2001F0A8FD002001F0A5FD3420B9
:1037900001F0A2FD002001F09FFD442001F09CFDFE
:1037A000002001F099FD4F2001F096FD002001F06E
:1037B00093FD612001F090FD002001F08DFD792046
:1037C00001F08AFD002001F087FD882001F084FDD2
:1037D000002001F081FD972001F07EFD002001F026
:1037E0007BFDA62001F078FD002001F075FDB720DB
:1037F00001F072FD002001F06FFDC22001F06CFDB0
:10380000002001F069FDC72001F066FD002001F0F5
:1038100063FDD12001F060FD002001F05DFDD620A8
:1038200001F05AFD002001F057FDDD2001F054FDAC
:10383000002001F051FDF32001F04EFD002001F0C9
:103840004BFDE32001F04EFD052001F045FD002079
:1038500001F042FD0A2001F03FFD002001F03CFD97
:103860001C2001F039FD002001F036FD332001F06D
:1038700033FD002001F030FD442001F02DFD00203B
:1038800001F02AFD502001F027FD002001F024FD69
:10389000622001F021FD002001F01EFD782001F0E2
:1038A0001BFD002001F018FD882001F015FD00200F
:1038B00001F012FD972001F00FFD002001F00CFD3A
:1038C000A62001F009FD002001F006FDB72001F05F
:1038D00003FD002001F000FDC22001F0FDFC0020EE
:1038E00001F0FAFCC72001F0F7FC002001F0F4FC25
:1038F000D12001F0F1FC002001F0EEFCD52001F018
:10390000EBFC002001F0E8FCDD2001F0E5FC0020EC
:1039100001F0E2FCF32001F0DFFC002001F0DCFC10
:10392000E42001F0DFFC012001F0D6FC002001F0D2
:10393000D3FC012001F0D0FC002001F0CDFC0220DE
:1039400001F0CAFC002001F0C7FC2A2001F0C4FCF1
:10395000002001F0C1FC3C2001F0BEFC002001F081
:10396000BBFC4B2001F0B8FC002001F0B5FC5D2051
:1039700001F0B2FC002001F0AFFC742001F0ACFCBF
:10398000002001F0A9FC842001F0A6FC002001F039
:10399000A3FC932001F0A0FC002001F09DFCA220DC
:1039A00001F09AFC002001F097FCB32001F094FC98
:1039B000002001F091FCBE2001F08EFC002001F0FF
:1039C0008BFCC42001F088FC002001F085FCCD2098
:1039D00001F082FC002001F07FFCD32001F07CFC90
:1039E000002001F079FCDD2001F076FC002001F0E0
:1039F00073FCF32001F070FC002001F06DFCE52069
:103A000001F070FC002001F067FC002001F064FC74
:103A1000002001F061FC002001F05EFC022001F0BA
:103A20005BFC002001F058FC292001F055FC00202F
:103A300001F052FC3C2001F04FFC002001F04CFC56
:103A40004B2001F049FC002001F046FC5D2001F014
:103A500043FC002001F040FC742001F03DFC0020FC
:103A600001F03AFC842001F037FC002001F034FC26
:103A7000932001F031FC002001F02EFCA22001F087
:103A80002BFC002001F028FCB32001F025FC0020D5
:103A900001F022FCBE2001F01FFC002001F01CFC04
:103AA000C42001F019FC002001F016FCCD2001F02B
:103AB00013FC002001F010FCD32001F00DFC0020CD
:103AC00001F00AFCDC2001F007FC002001F004FCFE
:103AD000F32001F001FC002001F0FEFBE62001F0E4
:103AE00001FC112001F0F8FB002001F0F5FB34206F
:103AF00001F0F2FB002001F0EFFB562001F0ECFB9F
:103B0000002001F0E9FB762001F0E6FB002001F047
:103B1000E3FB772001F0E0FB002001F0DDFB6620F5
:103B200001F0DAFB002001F0D7FB882001F0D4FB84
:103B3000002001F0D1FB992001F0CEFB002001F024
:103B4000CBFBBB2001F0C8FB002001F0C5FB992096
:103B500001F0C2FB002001F0BFFB662001F0BCFBBE
:103B6000002001F0B9FB552001F0B6FB002001F068
:103B7000B3FB552001F0B0FB002001F0ADFB452068
:103B800001F0AAFB002001F0A7FB432001F0A4FBF9
:103B9000002001F0A1FB442001F09EFB002001F079
:103BA0009BFBE72001F09EFB322001F095FB0020FB
:103BB00001F092FB552001F08FFB002001F08CFBFF
:103BC000762001F089FB002001F086FB662001F0E1
:103BD00083FB002001F080FB672001F07DFB0020CB
:103BE00001F07AFB672001F077FB002001F074FB05
:103BF000872001F071FB002001F06EFB992001F09D
:103C00006BFB002001F068FBBB2001F065FB00208E
:103C100001F062FB992001F05FFB002001F05CFBEA
:103C2000772001F059FB002001F056FB442001F001
:103C300053FB002001F050FB562001F04DFB00200B
:103C400001F04AFB232001F047FB002001F044FB78
:103C5000332001F041FB002001F03EFB452001F044
:103C60003BFB002001F038FBE82001F03BFB00208B
:103C700001F032FB002001F02FFB992001F02CFB1A
:103C8000002001F029FB872001F026FB002001F035
:103C900023FB882001F020FB002001F01DFB772092
:103CA00001F01AFB002001F017FB662001F014FB65
:103CB000002001F011FB882001F00EFB002001F034
:103CC0000BFBAA2001F008FB002001F005FBBB2044
:103CD00001F002FB002001F0FFFA992001F0FCFA4C
:103CE000002001F0F9FA662001F0F6FA002001F058
:103CF000F3FA552001F0F0FA002001F0EDFA55201A
:103D000001F0EAFA002001F0E7FA442001F0E4FAB9
:103D1000002001F0E1FA442001F0DEFA002001F079
:103D2000DBFA552001F0D8FA002001F0D5FAE9209D
:103D300001F0D8FAAA2001F0CFFA002001F0CCFA65
:103D4000002001F0C9FA002001F0C6FA002001F0BD
:103D5000C9FAAA2001F0C0FACF2001F0C3FA00206E
:103D600001F0BAFA002001F0B7FA002001F0B4FA2D
:103D7000002001F0B1FA002001F0AEFA002001F0BD
:103D8000ABFA002001F0A8FA002001F0A5FA00200B
:103D900001F0A2FA002001F09FFA002001F09CFA45
:103DA000002001F099FA002001F096FA002001F0BD
:103DB00093FA002001F090FA002001F08DFA002023
:103DC00001F08AFAF02001F08DFA002001F084FA67
:103DD000502001F081FA002001F07EFA002001F06D
:103DE0007BFA002001F078FAF32001F07BFA002042
:103DF00001F072FAF92001F075FA062001F06CFA70
:103E0000102001F069FA292001F066FA002001F083
:103E100063FA3A2001F066FA552001F05DFA1120AC
:103E200001F060FA642002F035FF292001F05AFA0F
:103E3000352001F057FA002001F04EFA512001F030
:103E400051FAFF2001F048FA532001F04BFA2C20E0
:103E500001F042FA552001F045FA822001F03CFAC7
:103E60002C2001F03FFA01F048B8FE48808845F266
:103E7000105188427ED155214FF4704001F042FA32
:103E8000AA214FF2010001F03DFA52214FF2020047
:103E900001F038FA08214FF2030001F033FA012152
:103EA0004FF2040001F02EFA0D214FF4304001F0E2
:103EB00029FA0D214BF2010001F024FA0D214BF2F9
:103EC000020001F01FFA34214FF4364001F01AFAD3
:103ED00034214BF2016001F015FA34214BF20260FB
:103EE00001F010FA0D214FF4314001F00BFA0D21D1
:103EF0004BF2011001F006FA0D214BF2021001F015
:103F000001FA34214FF4374001F0FCF934214BF22F
:103F1000017001F0F7F934214BF2027001F0F2F96F
:103F200000214FF4324001F0EDF900214BF2012065
:103F300001F0E8F900214BF2022001F0E3F924211D
:103F40004FF4384001F0DEF924214BF6010001F076
:103F5000D9F924214BF6020001F0D4F901214FF4E4
:103F60003F4001F0CFF90F214FF4334001F0CAF97F
:103F70000F2100E0FEE34BF2013001F0C3F90F2105
:103F80004BF2023001F0BEF934214FF4394001F018
:103F9000B9F934214BF6011001F0B4F934214BF694
:103FA000021001F0AFF908214FF4354001F0AAF9F1
:103FB00008214BF2015001F0A5F908214BF2025003
:103FC00001F0A0F903214FF4424001F09BF92421B4
:103FD0004FF43A4001F096F924214BF6012001F00C
:103FE00091F924214BF6022001F08CF900214FF4C5
:103FF0003C4001F087F978214BF6014001F082F94D
:1040000000214BF6024001F07DF900214FF43D40C4
:1040100001F078F978214BF6015001F073F9002195
:104020004BF6025001F06EF900214FF43E4001F0D2
:1040300069F964214BF6016001F064F900214FF445
:10404000514001F05FF933214DF2011001F05AF9AE
:1040500000214DF2021001F055F934214DF2031008
:1040600001F050F900214DF2041001F04BF93A2112
:104070004DF2051001F046F900214DF2061001F055
:1040800041F94A214DF2071001F03CF900214DF2AF
:10409000081001F037F95C214DF2091001F032F9F6
:1040A00000214DF20A1001F02DF981214DF20B1083
:1040B00001F028F900214DF20C1001F023F9A6219E
:1040C0004DF20D1001F01EF900214DF20E1001F01D
:1040D00019F9E5214DF20F1001F014F901214DF20B
:1040E000101001F00FF913214DF2111001F00AF92F
:1040F00001214DF2121001F005F954214DF2131077
:1041000001F000F901214DF2141001F0FBF88221B9
:104110004DF2151001F0F6F801214DF2161001F0E4
:10412000F1F8CA214DF2171001F0ECF802214DF21E
:10413000181001F0E7F800214DF2191001F0E2F833
:1041400002214DF21A1001F0DDF801214DF21B1091
:1041500001F0D8F802214DF21C1001F0D3F83421FF
:104160004DF21D1001F0CEF802214DF21E1001F0AB
:10417000C9F867214DF21F1001F0C4F802214DF279
:10418000201001F0BFF884214DF2211001F0BAF89F
:1041900002214DF2221001F0B5F8A4214DF22310B6
:1041A00001F0B0F802214DF2241001F0ABF8B72174
:1041B0004DF2251001F0A6F802214DF2261001F073
:1041C000A1F8CF214DF2271001F09CF802214DF209
:1041D000281001F097F8DE214DF2291001F092F835
:1041E00002214DF22A1001F08DF8F2214DF22B1030
:1041F00001F088F802214DF22C1001F083F8FE2125
:104200004DF22D1001F07EF803214DF22E1001F039
:1042100079F810214DF22F1001F074F803214DF2BE
:10422000301001F06FF833214DF2311001F06AF8CF
:1042300003214DF2321001F065F86D214DF233107B
:1042400001F060F800214FF4524001F05BF8332197
:104250004DF2012001F056F800214DF2022001F04C
:1042600051F801E0D807002034214DF2032001F07D
:1042700049F800214DF2042001F044F83A214DF2B2
:10428000052001F03FF800214DF2062001F03AF838
:104290004A214DF2072001F035F800214DF20820A7
:1042A00001F030F85C214DF2092001F02BF80021DB
:1042B0004DF20A2001F026F881214DF20B2001F089
:1042C00021F800214DF20C2001F01CF8A6214DF23E
:1042D0000D2001F017F800214DF20E2001F012F828
:1042E000E5214DF20F2001F00DF801214DF21020D3
:1042F00001F008F813214DF2112001F003F801211B
:104300004DF2122000F0FEFF54214DF2132000F078
:10431000F9FF01214DF2142000F0F4FF82214DF24B
:10432000152000F0EFFF01214DF2162000F0EAFF0A
:10433000CA214DF2172000F0E5FF02214DF21820AE
:1043400000F0E0FF00214DF2192000F0DBFF022118
:104350004DF21A2000F0D6FF01214DF21B2000F093
:10436000D1FF02214DF21C2000F0CCFF34214DF290
:104370001D2000F0C7FF02214DF21E2000F0C2FFF9
:1043800067214DF21F2000F0BDFF02214DF22020D9
:1043900000F0B8FF84214DF2212000F0B3FF02218C
:1043A0004DF2222000F0AEFFA4214DF2232000F0B8
:1043B000A9FF02214DF2242000F0A4FFB7214DF205
:1043C000252000F09FFF02214DF2262000F09AFFE9
:1043D000CF214DF2272000F095FF02214DF2282039
:1043E00000F090FFDE214DF2292000F08BFF02212A
:1043F0004DF22A2000F086FFF2214DF22B2000F032
:1044000081FF02214DF22C2000F07CFFFE214DF2B5
:104410002D2000F077FF03214DF22E2000F072FFD7
:1044200010214DF22F2000F06DFF03214DF23020BE
:1044300000F068FF33214DF2312000F063FF0321CB
:104440004DF2322000F05EFF6D214DF2332000F07E
:1044500059FF00214FF4534000F054FF33214DF237
:10446000013000F04FFF00214DF2023000F04AFF12
:1044700034214DF2033000F045FF00214DF20430AD
:1044800000F040FF3A214DF2053000F03BFF0021E3
:104490004DF2063000F036FF4A214DF2073000F0B1
:1044A00031FF00214DF2083000F02CFF5C214DF26D
:1044B000093000F027FF00214DF20A3000F022FF02
:1044C00081214DF20B3000F01DFF00214DF20C3028
:1044D00000F018FFA6214DF20D3000F013FF00216F
:1044E0004DF20E3000F00EFFE5214DF20F3000F0DE
:1044F00009FF01214DF2103000F004FF13214DF2AD
:10450000113000F0FFFE01214DF2123000F0FAFEF2
:1045100054214DF2133000F0F5FE01214DF214301C
:1045200000F0F0FE82214DF2153000F0EBFE01218B
:104530004DF2163000F0E6FECA214DF2173000F0C1
:10454000E1FE02214DF2183000F0DCFE00214DF2B8
:10455000193000F0D7FE02214DF21A3000F0D2FEE1
:1045600001214DF21B3000F0CDFE02214DF21C3036
:1045700000F0C8FE34214DF21D3000F0C3FE0221D0
:104580004DF21E3000F0BEFE67214DF21F3000F0EC
:10459000B9FE02214DF2203000F0B4FE84214DF22C
:1045A000213000F0AFFE02214DF2223000F0AAFED1
:1045B000A4214DF2233000F0A5FE02214DF224305B
:1045C00000F0A0FEB7214DF2253000F09BFE022145
:1045D0004DF2263000F096FECF214DF2273000F04C
:1045E00091FE02214DF2283000F08CFEDE214DF2CA
:1045F000293000F087FE02214DF22A3000F082FEC1
:10460000F2214DF22B3000F07DFE02214DF22C30D4
:1046100000F078FEFE214DF22D3000F073FE0321F4
:104620004DF22E3000F06EFE10214DF22F3000F0D2
:1046300069FE03214DF2303000F064FE33214DF26B
:10464000313000F05FFE03214DF2323000F05AFEAF
:104650006D214DF2333000F055FE00214FF45440EF
:1046600000F050FE33214DF2014000F04BFE0021DE
:104670004DF2024000F046FE34214DF2034000F0BE
:1046800041FE00214DF2044000F03CFE3A214DF283
:10469000054000F037FE00214DF2064000F032FEEA
:1046A0004A214DF2074000F02DFE00214DF2084056
:1046B00000F028FE5C214DF2094000F023FE0021AD
:1046C0004DF20A4000F01EFE81214DF20B4000F039
:1046D00019FE00214DF20C4000F014FEA6214DF20F
:1046E0000D4000F00FFE00214DF20E4000F00AFEDA
:1046F000E5214DF20F4000F005FE01214DF2104082
:1047000000F000FE13214DF2114000F0FBFD0121ED
:104710004DF2124000F0F6FD54214DF2134000F02E
:10472000F1FD01214DF2144000F0ECFD82214DF22B
:10473000154000F0E7FD01214DF2164000F0E2FDCA
:10474000CA214DF2174000F0DDFD02214DF2184064
:1047500000F0D8FD00214DF2194000F0D3FD0221F8
:104760004DF21A4000F0CEFD01214DF21B4000F049
:10477000C9FD00E003E302214DF21C4000F0C2FD40
:1047800034214DF21D4000F0BDFD02214DF21E40CE
:1047900000F0B8FD67214DF21F4000F0B3FD02218B
:1047A0004DF2204000F0AEFD84214DF2214000F09A
:1047B000A9FD02214DF2224000F0A4FDA4214DF2FA
:1047C000234000F09FFD02214DF2244000F09AFDAD
:1047D000B7214DF2254000F095FD02214DF2264013
:1047E00000F090FDCF214DF2274000F08BFD02211B
:1047F0004DF2284000F086FDDE214DF2294000F008
:1048000081FD02214DF22A4000F07CFDF2214DF2A3
:104810002B4000F077FD02214DF22C4000F072FD9C
:10482000FE214DF22D4000F06DFD03214DF22E4092
:1048300000F068FD10214DF22F4000F063FD0321D0
:104840004DF2304000F05EFD33214DF2314000F07A
:1048500059FD03214DF2324000F054FD6D214DF21F
:10486000334000F04FFD00214FF4554000F04AFD69
:1048700033214DF2015000F045FD00214DF2025070
:1048800000F040FD34214DF2035000F03BFD0021CB
:104890004DF2045000F036FD3A214DF2055000F083
:1048A00031FD00214DF2065000F02CFD4A214DF261
:1048B000075000F027FD00214DF2085000F022FDC6
:1048C0005C214DF2095000F01DFD00214DF20A500F
:1048D00000F018FD81214DF20B5000F013FD002176
:1048E0004DF20C5000F00EFDA6214DF20D5000F0DF
:1048F00009FD00214DF20E5000F004FDE5214DF2BE
:104900000F5000F0FFFC01214DF2105000F0FAFCB6
:1049100013214DF2115000F0F5FC01214DF212501F
:1049200000F0F0FC54214DF2135000F0EBFC01219B
:104930004DF2145000F0E6FC82214DF2155000F0CB
:10494000E1FC01214DF2165000F0DCFCCA214DF2D1
:10495000175000F0D7FC02214DF2185000F0D2FCA5
:1049600000214DF2195000F0CDFC02214DF21A50F9
:1049700000F0C8FC01214DF21B5000F0C3FC0221E5
:104980004DF21C5000F0BEFC34214DF21D5000F0E1
:10499000B9FC02214DF21E5000F0B4FC67214DF22B
:1049A0001F5000F0AFFC02214DF2205000F0AAFC95
:1049B00084214DF2215000F0A5FC02214DF222503D
:1049C00000F0A0FCA4214DF2235000F09BFC02213A
:1049D0004DF2245000F096FCB7214DF2255000F026
:1049E00091FC02214DF2265000F08CFCCF214DF2BB
:1049F000275000F087FC02214DF2285000F082FC85
:104A0000DE214DF2295000F07DFC02214DF22A50AA
:104A100000F078FCF2214DF22B5000F073FC0221E3
:104A20004DF22C5000F06EFCFE214DF22D5000F0A6
:104A300069FC03214DF22E5000F064FC10214DF270
:104A40002F5000F05FFC03214DF2305000F05AFC73
:104A500033214DF2315000F055FC03214DF232501C
:104A600000F050FC6D214DF2335000F04BFC002162
:104A70004FF4564000F046FC33214DF2016000F047
:104A800041FC00214DF2026000F03CFC34214DF26B
:104A9000036000F037FC00214DF2046000F032FCAE
:104AA0003A214DF2056000F02DFC00214DF2066028
:104AB00000F028FC4A214DF2076000F023FC0021A1
:104AC0004DF2086000F01EFC5C214DF2096000F020
:104AD00019FC00214DF20A6000F014FC81214DF216
:104AE0000B6000F00FFC00214DF20C6000F00AFC9E
:104AF000A6214DF20D6000F005FC00214DF20E6084
:104B000000F000FCE5214DF20F6000F0FBFB0121FD
:104B10004DF2106000F0F6FB13214DF2116000F031
:104B2000F1FB01214DF2126000F0ECFB54214DF23B
:104B3000136000F0E7FB01214DF2146000F0E2FB8E
:104B400082214DF2156000F0DDFB01214DF216606F
:104B500000F0D8FBCA214DF2176000F0D3FB022110
:104B60004DF2186000F0CEFB00214DF2196000F00C
:104B7000C9FB02214DF21A6000F0C4FB01214DF285
:104B80001B6000F0BFFB02214DF21C6000F0BAFB7D
:104B900034214DF21D6000F0B5FB02214DF21E6084
:104BA00000F0B0FB67214DF21F6000F0ABFB02216B
:104BB0004DF2206000F0A6FB84214DF2216000F050
:104BC000A1FB02214DF2226000F09CFBA4214DF2DA
:104BD000236000F097FB02214DF2246000F092FB6D
:104BE000B7214DF2256000F08DFB02214DF22660C9
:104BF00000F088FBCF214DF2276000F083FB0221FB
:104C00004DF2286000F07EFBDE214DF2296000F0BD
:104C100079FB02214DF22A6000F074FBF2214DF283
:104C20002B6000F06FFB02214DF22C6000F06AFB5C
:104C3000FE214DF22D6000F065FB03214DF22E6048
:104C400000F060FB10214DF22F6000F05BFB0321B0
:104C50004DF2306000F056FB33214DF2316000F030
:104C600051FB03214DF2326000F04CFB6D214DF2FF
:104C7000336000F047FB55214FF4704000F042FBD9
:104C8000AA214FF2010000F03DFB52214FF2020039
:104C900000F038FB08214FF2030000F033FB002145
:104CA0004FF2040000F02EFBCC214FF4314000F015
:104CB00029FB00214BF2011000F024FB05214FF4E9
:104CC000364000F01FFB70214FF4374000F01AFB14
:104CD00070214BF2017000F015FB01214FF43840B8
:104CE00000F010FB03214BF6010000F00BFB032149
:104CF0004BF6020000F006FB03214BF6030000F028
:104D000001FB02214FF43C4000F0FCFA00214BF67D
:104D1000014000F0F7FA00214BF6024000F0F2FAF1
:104D2000D0214FF4494000F0EDFA02214CF6011079
:104D300000F0E8FA50214CF6021000F0E3FA50219E
:104D40004CF6031000F0DEFA50214CF6041000F08F
:104D5000D9FA00214FF4545000F0D4FA55214FF401
:104D6000685000F0CFFA4FF4885000F0BBFA78207A
:104D700001F0B6FF4FF4245000F0B4FABDE06548EE
:104D8000808841F663118842F8D1E22000F0AAFA47
:104D90001D2000F0A1FA022000F09EFA042000F08D
:104DA0009BFA642001F09CFFE02000F09BFA0120B8
:104DB00000F092FA0A2001F06DFFE02000F092FA74
:104DC000032000F089FA0C2001F064FF012000F0BC
:104DD00089FA0A2001F05EFFE62000F083FA2F2016
:104DE00000F07AFAFF2000F077FAFF2000F074FA62
:104DF000B02000F077FA202000F06EFA002000F0DA
:104E00006BFA032000F068FA40F21F3000F064FAF9
:104E1000012000F061FA40F2DF1000F05DFA00209E
:104E200000F05AFAB42000F05DFA042000F054FAC1
:104E300040F21F4000F050FA002000F04DFA2E2002
:104E400000F04AFA002000F047FA002000F044FA8F
:104E5000002000F041FA002000F03EFAB62000F0F9
:104E600041FA022000F038FA4FF4037000F034FAEF
:104E7000002000F031FA172000F02EFA152000F083
:104E80002BFA002000F028FA002000F025FAF0208C
:104E900000F028FA032000F01FFA292000F022FA7F
:104EA000D02000F01FFA002000F016FABE2000F01B
:104EB00019FA052000F010FAFE2000F00DFA01208A
:104EC00000F00AFA002000F007FA002000F004FACF
:104ED000002000F001FAB82000F004FA032000F0EE
:104EE000FBF9012000F0F8F9BA2000F0FBF90120ED
:104EF00000F0F2F9642000F01BF80020FDF70AFC36
:104F00000120054908604FF6FF70FDF7E9FB1FB06F
:104F100000BD0000D80700208081214208B5034869
:104F200000880090BDF8000008BD00000008006C7B
:104F30002DE9F0470446BE2000F0D4F9052000F02A
:104F4000CBF9204605F08CFF07464FF066320C4B3C
:104F500005F09AFF054605F03FFF1FFA80F9484625
:104F600000F0BAF9012000F0B7F9FF2000F0B4F921
:104F7000002000F0B1F9002000F0AEF9BDE8F087A4
:104F80006666044070B5044600230026894880798F
:104F9000012805D18748808841F66311884208D1ED
:104FA00084488079F0B98348808841F6631188424B
:104FB00018D1082C15D2DFE804F00406080A0C0EFC
:104FC000101206240DE007240BE0042409E0052458
:104FD00007E0012405E0002403E0032401E00224AB
:104FE00000BF00BF082C1CD2DFE804F00406090C47
:104FF0000F12151800BF14E043F0800311E043F0D6
:1050000040030EE043F0C0030BE043F0200308E050
:1050100043F0600305E043F0A00302E043F0E00347
:1050200000BF00BF6348808845F21051884202D11A
:105030004FF4585600E036265E48808849F24131E8
:10504000884205D05B48808847F28971884201D147
:1050500043F008031946304600F054F9554880885B
:1050600041F6631188421DD003F0200068B1514819
:10507000008850494988884214DA4E48058840889B
:105080004C490880084645800CE04A480088494958
:105090004988884206DD4748058840884549088098
:1050A000084645804348808845F21051884252D1D5
:1050B0004049488900F016F9002000F00DF93D49FB
:1050C0004989491C88B200F00DF9002000F004F96C
:1050D00038494989891C88B200F004F935490988A2
:1050E000491EC1F30F2000F0F7F832494989C91C65
:1050F00088B200F0F7F82F490978491EC8B200F0CD
:10510000EBF82C49888900F0EDF8002000F0E4F875
:1051100028498989491C88B200F0E4F8002000F091
:10512000DBF824498989891C88B200F0DBF8214921
:105130004988491EC1F30F2000F0CEF81D49898926
:10514000C91C88B200F0CEF81A498978491EC8B245
:1051500000F0C2F82DE01749488900F0C3F800209C
:1051600000F0BAF8002000F0B7F812490988491E8B
:10517000C1F30F2000F0B0F80E490978491EC8B2FB
:1051800000F0AAF80B49888900F0ACF8002000F084
:10519000A3F8002000F0A0F806494988491EC1F391
:1051A0000F2000F099F803498978491EC8B200F031
:1051B00093F870BDD807002000B502460B4645485D
:1051C000808841F66311884247D142488079A8B966
:1051D00040480088401E801A82B23E49488900F04B
:1051E00081F8002000F078F8002000F075F8101227
:1051F00000F072F8D0B200F06FF816E03549488937
:1052000000F070F8101200F067F8D0B200F064F807
:1052100030490988491EC1F30F2000F05DF82D497F
:105220000978491EC8B200F057F82A49888900F069
:1052300059F8181200F050F8D8B200F04DF825498E
:105240004988491EC1F30F2000F046F821498978AA
:10525000491EC8B200F040F83AE01E48808845F286
:105260001051884220D11B49488900F03BF81012A8
:1052700000F032F817494989491C88B200F032F829
:10528000D0B200F029F81349888900F02BF81812E1
:1052900000F022F80F498989491C88B200F022F8F1
:1052A000D8B200F019F813E00A49488900F01AF85A
:1052B000101200F011F8D0B200F00EF805498889FC
:1052C00000F010F8181200F007F8D8B200F004F857
:1052D00000BD0000D8070020014908807047000089
:1052E0000008006C0149088070470000FE07006C50
:1052F000024800890249088070470000D807002052
:10530000FE07006C024A1080921C1180704700005A
:10531000FE07006C08B50121482000F0F9FC2020B0
:10532000ADF8000010208DF8030003208DF8020076
:1053300069460948FDF73FF820210748FDF719F9AC
:105340002020ADF8000069460448FDF734F820211C
:105350000248FDF70EF908BD000C0140001801409D
:105360002DE9FC4104460D4616466B4606223B21BC
:10537000682000F042FA0746BFB99DF801009DF889
:10538000001040EA012000B220809DF803009DF843
:10539000021040EA012000B228809DF805009DF827
:1053A000041040EA012000B230803846BDE8FC819C
:1053B0002DE9FC4104460D4616466B460622432164
:1053C000682000F01AFA0746BFB99DF801009DF861
:1053D000001040EA012000B220809DF803009DF8F3
:1053E000021040EA012000B228809DF805009DF8D7
:1053F000041040EA012000B230803846BDE8FC814C
:105400002DE9F84F6B4602224121682000F0F5F9A2
:105410009DF801009DF8001040EA01200FFA80FA83
:10542000504605F006FD804600220B4B05F04CFB74
:1054300006460A4A0A4B05F097FA044605F062FA56
:1054400083460849584606F025FA044606F086F9D0
:1054500000B2BDE8F88F000000407540A4703D0A1E
:10546000D74342400000C84210B500200E490860F2
:105470000E48006820F00F000C49086008460068DC
:1054800040F00300086000200949C1F8A00100F0C5
:1054900011F801200449086000F00CF800200449CC
:1054A000C1F8A40110BD0000A4812142040C0140F8
:1054B0000080214210B5022001F012FC10BD000056
:1054C00008B50121082000F023FC4FF44070ADF82E
:1054D000000010208DF8030003208DF802006946BB
:1054E0000448FCF768FF4FF440710248FDF741F8AB
:1054F00008BD0000000C014010B500200E490860F6
:105500000E48006820F00F000C490860084600684B
:1055100040F00300086001200949C1F8A001FFF72D
:10552000C9FF012004490860FFF7C4FF00200449B7
:10553000C1F8A40110BD0000A4812142040C014067
:105540000080214270B5054600241648006820F00E
:105550000F00144908600846006840F00800086021
:10556000002614E0002010490860FFF7A3FF012087
:105570000E49C1F8A4016006040E0B488438006887
:1055800008B1601CC4B2FFF795FF701CC6B2082EAC
:10559000E8DB15B9FFF7B0FF01E0FFF765FF204634
:1055A00070BD0000040C0140A48121420080214212
:1055B00070B504461248006820F00F0010490860DA
:1055C0000846006840F00300086000200D490860AC
:1055D000002512E0E0090B49091F08606006040E6F
:1055E00001200949C1F8A401FFF764FF0020054923
:1055F0000860FFF75FFF681CC5B2082DEADB70BDCD
:10560000040C0140A48121420080214210B50E48C3
:10561000006820F00F000C4908600846006840F060
:10562000030008600120094908600949C1F8A40184
:10563000FFF740FF002005490860FFF73BFF00200F
:105640000349C1F8A40110BD040C0140A08121420E
:105650000080214210B50E48006820F00F000C4970
:1056600008600846006840F003000860002009490F
:1056700008600949C1F8A001FFF71CFF0120054996
:1056800008600549C1F8A001FFF714FF10BD000034
:10569000040C0140A48121420080214210B5002465
:1056A0001448006820F00F0012490860084600689E
:1056B00040F00800086001200F490860FFF7FAFE7B
:1056C00001200E49C1F8A401FFF7F4FE07E0601CB9
:1056D000C4B2FA2C03DDFFF7BDFF012010BD064860
:1056E000803800680028F2D10349091D086000BF16
:1056F000F4E70000040C0140A08121420080214217
:1057000038B50121084600F003FB0121042000F018
:10571000FFFA4FF40040ADF8000010208DF80300B0
:1057200003208DF8020069462248FCF744FE01215F
:105730002148FCF7CBFE002020490860FFF7C0FE9F
:1057400080216B2000F0DDF8642001F0A3FA002135
:105750006B2000F0D6F8032000F091F8002000F054
:1057600086F8322000F0B0F80021382000F0C9F8A7
:1057700000216A2000F0C5F80021232000F0C1F8C4
:105780008021372000F0BDF8752000F019F804469C
:10579000682C0BD101216B2000F0B3F800216C20A4
:1057A00000F0AFF8322000F08FF801E0012038BDA2
:1057B0000020FCE70008014000023000BC0121424B
:1057C00070B50446FFF722FFD020FFF7F1FEFFF788
:1057D00065FF2046FFF7ECFEFFF760FFFFF716FFBF
:1057E000D120FFF7E5FEFFF759FF0020FFF7AAFEE3
:1057F0000546FFF72FFF284670BD2DE9F04106460C
:105800000F4614461D46FFF701FF002141EA4601FD
:10581000C8B2FFF7CDFEFFF741FF20B1FFF71AFF37
:105820000120BDE8F0813846FFF7C2FEFFF736FFE2
:10583000FFF7ECFE012101EB4601C8B2FFF7B8FE0D
:10584000FFF72CFF0DE0012C04D10020FFF77AFEBA
:10585000287003E00120FFF775FE2870601EC4B2B7
:105860006D1C002CEFD1FFF7F5FE0020D9E710B535
:105870000446E006010E1C2000F043F810BD10B5F0
:105880000446E006010E1B2000F03BF810BD70B589
:1058900004460025BC2C01DB012510E0622C01DB55
:1058A00002250CE02A2C01DB032508E0142C01DB87
:1058B000042504E00A2C01DB052500E00625294625
:1058C0001A2000F01EF870BD70B50446B4F57A7F5A
:1058D00001DD4FF47A74042C00DA04244FF47A705A
:1058E00090FBF4F0401EC5B22946192000F009F8DB
:1058F0000546264604EBD671C1F34F00FFF7C7FFFC
:1059000070BD70B505460C46FFF780FED020FFF74E
:105910004FFEFFF7C3FE18B1FFF79CFE012070BDDC
:105920002846FFF745FEFFF7B9FE2046FFF740FE89
:10593000FFF7B4FE18B1FFF78DFE0120EFE7FFF788
:1059400089FE0020EBE72DE9F04105460E4617469B
:105950009846FFF75BFE002141EA4501C8B2FFF718
:1059600027FEFFF79BFE20B1FFF774FE0120BDE884
:10597000F0813046FFF71CFEFFF790FE00240CE09C
:1059800018F80400FFF714FEFFF788FE18B1FFF7C0
:1059900061FE0120EBE7601CC4B2BC42F0DBFFF704
:1059A00059FE0020E3E700BFFEE7704770B5002115
:1059B00000230F22C47804B3154C246804F4E06477
:1059C000C4F5E064210AC1F10403CA40447804FA32
:1059D00003F184781440214309010E4C0678A15547
:1059E000047804F01F050124AC4005786D11AD006A
:1059F00005F1E025C5F8004109E0047804F01F0531
:105A00000124AC40044D0678761145F8264070BD5F
:105A10000CED00E000E400E080E100E00249014319
:105A2000024A1160704700000000FA050CED00E02A
:105A300070B500240CE0002506E00020074901EBCA
:105A4000C5010855681CC5B2802DF6DB601CC4B2C8
:105A5000082CF0DB00F0C8F870BD000058030020EF
:105A600008B501214FF4B07000F052F94FF48050A6
:105A7000ADF8000010208DF8030003208DF802001F
:105A800069465648FCF797FC4FF480515348FCF7A1
:105A900070FD48F23200ADF8000010208DF80300D0
:105AA00003208DF8020069464D48FCF784FC48F25B
:105AB00032014B48FCF75DFD4FF4A060ADF80000EB
:105AC00010208DF8030003208DF802006946454838
:105AD000FCF771FC4FF4A0614248FCF74AFD10212D
